:020000040000FA
:100000000C9458000C9480000C9480000C94800098
:100010000C9480000C9480000C9480000C94800060
:100020000C9480000C9480000C9480000C94800050
:100030000C9480000C9480000C9480000C94800040
:100040000C9492060C9480000C9402070C94DC062D
:100050000C9480000C9480000C9480000C94800020
:100060000C9434070C948000000000002500280048
:100070002B00040404040404040402020202020229
:10008000030303030303010204081020408001025C
:1000900004081020010204081020000000080002DB
:1000A00001000003040700000000000000005308E6
:1000B00011241FBECFEFD8E0DEBFCDBF11E0A0E01E
:1000C000B1E0E8E2F9E102C005900D92A833B10772
:1000D000D9F722E0A8E3B1E001C01D92A13BB2072D
:1000E000E1F710E0C8E5D0E004C02197FE010E94CE
:1000F000670BC735D107C9F70E9498080C94920C7A
:100100000C94000090E0FC01E656FF4F2491FC01A6
:10011000EA57FF4F3491FC01EE58FF4FE491EE2374
:10012000C9F0222339F0233001F1A8F4213019F16C
:10013000223029F1F0E0EE0FFF1FE859FF4FA591A3
:10014000B4918FB7F894EC91611126C030953E239D
:100150003C938FBF08952730A9F02830C9F0243090
:1001600049F7809180008F7D03C0809180008F7758
:1001700080938000DFCF84B58F7784BDDBCF84B5DB
:100180008F7DFBCF8091B0008F778093B000D2CF6E
:100190008091B0008F7DF9CF3E2BDACF3FB7F89436
:1001A0008091850190918601A0918701B09188018D
:1001B00026B5A89B05C02F3F19F00196A11DB11DC2
:1001C0003FBFBA2FA92F982F8827BC01CD01620FFE
:1001D000711D811D911D42E0660F771F881F991FB9
:1001E0004A95D1F708958F929F92AF92BF92CF9286
:1001F000DF92EF92FF924B015C010E94CE006B01F7
:100200007C010E94CE006C197D098E099F09683E11
:10021000734081059105A8F321E0821A9108A10895
:10022000B10888EEC80E83E0D81EE11CF11C8114D1
:100230009104A104B10429F7FF90EF90DF90CF90D3
:10024000BF90AF909F908F90089508950895AF92BA
:10025000BF92CF92DF92EF92FF920F931F93CF93B3
:10026000DF936C017B018B01040F151FEB015E0115
:10027000AE18BF08C017D10759F06991D601ED91AA
:10028000FC910190F081E02DC6010995892B79F749
:10029000C501DF91CF911F910F91FF90EF90DF90FB
:1002A000CF90BF90AF900895FC01538D448D252FC2
:1002B00030E0842F90E0821B930B541710F0CF9600
:1002C000089501970895FC01918D828D981761F032
:1002D000A28DAE0FBF2FB11D5D968C91928D9F5F49
:1002E0009F73928F90E008958FEF9FEF0895FC0128
:1002F000918D828D981731F0828DE80FF11D858DDB
:1003000090E008958FEF9FEF0895FC01918D228D6D
:10031000892F90E0805C9F4F821B91098F739927F2
:1003200008958BEF91E00E94850121E0892B09F46B
:1003300020E0822F089580E090E0892B29F00E9430
:10034000910181110C9400000895FC01A48DA80F67
:10035000B92FB11DA35ABF4F2C91848D90E0019607
:100360008F739927848FA689B7892C93A089B18927
:100370008C91837080648C93938D848D981306C0C8
:100380000288F389E02D80818F7D80830895EF922C
:10039000FF920F931F93CF93DF93EC0181E0888F3F
:1003A0009B8D8C8D98131AC0E889F989808185FF0F
:1003B00015C09FB7F894EE89FF896083E889F989B1
:1003C00080818370806480839FBF81E090E0DF91B3
:1003D000CF911F910F91FF90EF900895F62E0B8D06
:1003E00010E00F5F1F4F0F731127E02E8C8D8E11C1
:1003F0000CC00FB607FCFACFE889F989808185FF28
:10040000F5CFCE010E94A501F1CFEB8DEC0FFD2FB2
:10041000F11DE35AFF4FF0829FB7F8940B8FEA89E2
:10042000FB8980818062CFCFCF93DF93EC01888DF1
:100430008823B9F0AA89BB89E889F9898C9185FD5F
:1004400003C0808186FD0DC00FB607FCF7CF8C91ED
:1004500085FFF2CF808185FFEDCFCE010E94A501FF
:10046000E9CFDF91CF91089520915901260F3327CD
:10047000331F21323105ECF42091D101FC0190E0D1
:1004800080E0243069F082E00895A0915901219123
:10049000AC01475C5E4FA40FB52FB11D2C930196A4
:1004A000861798F380915901680F6093590180E095
:1004B000089581E008951092D10181E08093D001E8
:1004C0001092AB0161E082E10E94820061E083E171
:1004D0000E948200E9EBF0E080818E7F8083808142
:1004E0008D7F808388E48093B80085E48093BC008E
:1004F0000895CF93DF9391E0909338018823B9F06A
:10050000C091B800D091BA008091BC008A7B8093E2
:10051000BC0060E082E10E94820060E083E10E9412
:1005200082000E945B02D093BA00C093B800DF91B2
:10053000CF9108958F929F92AF92BF92CF92DF9208
:10054000EF92FF920F931F93CF93DF93D091FA0115
:10055000D13208F0D7C0182FC091F9010E94CE0007
:100560006B017C018091D10181116BC082E080938D
:10057000D1011093D0018FEF8093CF011092CE0163
:10058000D093CD01A9EDB1E0EDEAF1E080E0D81320
:1005900091C01092AC018091AC01CC0FC82BC093DC
:1005A000AC018091AB01813009F088C01092AB01A1
:1005B0000E94CE006B017C018091AC018093BB0056
:1005C0008091D3019091D401A091D501B091D60131
:1005D000892B8A2B8B2BA1F00E94CE000091D30196
:1005E0001091D4012091D5013091D6016C197D096B
:1005F0008E099F09061717072807390708F442C014
:100600008091BC0083FDD8CF85EC8093BC000E9414
:10061000CE006B017C018091D101823009F450C081
:100620008091CF018F3F09F46FC08091CF0180325C
:1006300009F46CC08091CF01803309F469C084E073
:1006400026C08091D3019091D401A091D501B091A1
:10065000D601892B8A2B8B2B09F484CF0E94CE00E4
:100660008090D3019090D401A090D501B090D60194
:100670006C197D098E099F0986169706A806B9068A
:1006800008F070CF8091D2010E94790285E010922B
:10069000D8011092FA011092D701DF91CF911F91EA
:1006A0000F91FF90EF90DF90CF90BF90AF909F9011
:1006B0008F9008959D9191938F5F69CF85EEA5CF1F
:1006C0008091D3019091D401A091D501B091D60130
:1006D000892B8A2B8B2B09F49ECF0E94CE00009190
:1006E000D3011091D4012091D5013091D6016C191C
:1006F0007D098E099F09061717072807390708F093
:100700008ACFC0CF81E0C3CF80E0C1CF82E0BFCF2E
:1007100083E0BDCF1F93CF93DF93EA01122FDC015B
:1007200011968D919C91DC01ED91FC910280F381F9
:10073000E02D0995C817D90729F4812F0E949A0244
:1007400091E0811190E0892FDF91CF911F91089561
:10075000CF93DF93EC018B818823A1F0888191E016
:100760009093D7018093F9011092D8011092FA0169
:1007700081E00E949A0291E0811190E0892FDF913F
:10078000CF91089510928A01109289011092D80198
:100790001092FA010E945B0285E291E090937D0144
:1007A00080937C0186E291E090937F0180937E01AB
:1007B00081E08B83CE010E94A803982F8111CECFB8
:1007C000DDCF0895E0918A0180918901E81730F426
:1007D000F0E0E557FE4F808190E008958FEF9FEFA6
:1007E000089590918A01809189012FEF3FEF98172A
:1007F00048F4E92FF0E0E557FE4F208130E09F5F9D
:1008000090938A01C90108958091890190918A018C
:10081000891B990B0895CF92DF92EF92FF920F936D
:100820001F93CF93DF937C01CB018A012091D701E5
:10083000222389F0EB016B01C40ED51ECC15DD051A
:1008400069F06991D701ED91FC910190F081E02D63
:10085000C7010995F3CF642F0E943402C801DF91CC
:10086000CF911F910F91FF90EF90DF90CF9008955F
:10087000CF93DF931F92CDB7DEB769832091D70165
:100880002223F9F02091FA01203258F021E030E0E3
:10089000FC013383228390E080E00F90DF91CF91C1
:1008A00008958091D801E82FF0E0E752FE4F99813A
:1008B00090838F5F8093D8018093FA0181E090E06C
:1008C000ECCF61E0CE0101960E943402F7CF90E0B8
:1008D00080E008951F93CF93DF9300D000D01F9244
:1008E000CDB7DEB7880F880F8A5F89831A827B8332
:1008F0001C825D838091A7029091A802FC01248153
:10090000358125303105E0F0208111E01093D701C9
:100910002093F9011092D8011092FA0121E045E0EC
:1009200050E0BE016F5F7F4F0E948A0381270F90C6
:100930000F900F900F900F90DF91CF911F9108951E
:1009400081E0F5CFCF93DF9300D0CDB7DEB78983B9
:100950006A838091A7029091A802FC0124813581CD
:100960002230310590F0208131E03093D70120937F
:10097000F9011092D8011092FA0121E042E050E012
:10098000BE016F5F7F4F0E948A030F900F90DF912F
:10099000CF9108952F923F924F925F926F927F92E4
:1009A0008F929F92AF92BF92CF92DF92EF92FF927F
:1009B0000F931F93CF93DF931F92CDB7DEB7609154
:1009C000A9027091AA028091AB029091AC020E94A0
:1009D000B00A20E030E04AE75AE40E940F0A20E023
:1009E00030E040E05FE30E949E0920E030E040E814
:1009F0005FE30E949D096B017C0120E030E040E450
:100A000050E40E940A0A87FDB0C020E030E04FE7C2
:100A100053E4C701B6010E94620B18160CF4ABC078
:100A2000C701B6010E94810A962E1982E090A702A2
:100A3000F090A802D70114968D919C911597892B5F
:100A400009F40AC18C9191E09093D7018093F90148
:100A50001092D8011092FA0120E041E050E0BE016E
:100A60006F5F7F4FC7010E948A03882309F4F4C097
:100A70008824839485EC382EF701C480D58001E06A
:100A8000C114D10409F400E0A02EB12CD7012C90A0
:100A90000E94CE002B013C018091D101811172C0D6
:100AA000102F8092D1010093D001BFEFB093CF01FE
:100AB0001092CE018FEF800F8093CD018092AC0118
:100AC0008091AC01220C282A2092AC018091AB01CC
:100AD000813009F098C01092AB010E94CE002B012A
:100AE0003C018091AC018093BB008091D301909137
:100AF000D401A091D501B091D601892B8A2B8B2BE3
:100B0000A1F00E94CE002091D3013091D4014091F8
:100B1000D5015091D60164197509860997092617E0
:100B200037074807590708F44EC08091BC0083FD81
:100B3000D8CF3092BC000E94CE002B013C018091A6
:100B4000D101813009F463C08091CE01801710F487
:100B50001091CE01EDEAF1E0ABE8B1E080E0811761
:100B6000B9F191919D938F5FFACFC12CD12C20E4E4
:100B7000E22EFE2C55CFC12CD12C9FE7E92E93E419
:100B8000F92E4ECF8091D3019091D401A091D5013F
:100B9000B091D601892B8A2B8B2B09F47DCF0E9433
:100BA000CE002091D3013091D4014091D5015091D4
:100BB000D60164197509860997092617370748076A
:100BC000590708F069CF8091D2010E94790210E0A4
:100BD00010928A01109389011A151B04E9F590E01F
:100BE00080E08A159B05A8F5D70111968D919C91FF
:100BF000DC01ED91FC910284F385E02D0995898358
:100C000081E090E0EECFE5EEE093BC0094CF8091E0
:100C1000D3019091D401A091D501B091D601892B37
:100C20008A2B8B2B09F48BCF0E94CE002091D3010D
:100C30003091D4014091D5015091D60164197509C4
:100C400086099709261737074807590708F077CF0D
:100C5000BACFCD2809F410CF1981612F6F7660616A
:100C600080E00E94A204692D8EEF0E94A204612FF1
:100C700080E00E94A20465E070E080E090E00E94C5
:100C8000F300612F606A80E00E94A2040F90DF9160
:100C9000CF911F910F91FF90EF90DF90CF90BF9079
:100CA000AF909F908F907F906F905F904F903F900C
:100CB0002F90089585ED8093BC008091D301909191
:100CC000D401A091D501B091D6010796A11DB11D07
:100CD00023E0B695A795979587952A95D1F720910A
:100CE000BC0024FD03C01092D10108954091D301AE
:100CF0005091D4016091D5017091D601452B462BBE
:100D0000472B69F30097A105B10541F02AE22A9526
:100D1000F1F700C00197A109B109E1CF8091D2019B
:100D20000C9479021F920F920FB60F9211242F93F9
:100D30003F938F939F93AF93BF9380918101909145
:100D40008201A0918301B09184013091800123E060
:100D5000230F2D3758F50196A11DB11D2093800159
:100D60008093810190938201A0938301B0938401C9
:100D70008091850190918601A0918701B0918801B1
:100D80000196A11DB11D8093850190938601A093CA
:100D90008701B0938801BF91AF919F918F913F914F
:100DA0002F910F900FBE0F901F90189526E8230FDC
:100DB0000296A11DB11DD2CF1F920F920FB60F92B6
:100DC00011242F933F934F935F936F937F938F9350
:100DD0009F93AF93BF93EF93FF938BEF91E00E94AC
:100DE000A501FF91EF91BF91AF919F918F917F915D
:100DF0006F915F914F913F912F910F900FBE0F9088
:100E00001F9018951F920F920FB60F9211242F93D7
:100E10008F939F93EF93FF93E0910B02F0910C025D
:100E20008081E0911102F091120282FD1BC090813D
:100E3000809114028F5F8F7320911502821741F009
:100E4000E0911402F0E0E550FE4F958F809314027C
:100E5000FF91EF919F918F912F910F900FBE0F9067
:100E60001F9018958081F4CF1F920F920FB60F92AA
:100E700011242F933F934F935F936F937F938F939F
:100E80009F93AF93BF93EF93FF938091B900887FB7
:100E9000803609F44AC0F0F5883209F4A7C018F585
:100EA000803109F49BC0B8F4882309F4F9C0883074
:100EB00009F494C0FF91EF91BF91AF919F918F91F1
:100EC0007F916F915F914F913F912F910F900FBE46
:100ED0000F901F901895883109F488C0803251F71F
:100EE0008093CF0114C0803409F49DC040F4803356
:100EF000B9F38833F9F68093CF0185ECB0C0803523
:100F000009F485C0883509F496C0883499F60E94A2
:100F10005A06D0CF883909F48CC038F5883729F0C3
:100F200050F4883611F0803729F683E08093D101A0
:100F300010927B0157C0883809F47BC0803919F0C2
:100F4000803809F0B7CF80917B01803208F071C002
:100F5000E0917B0181E08E0F80937B018091BB004B
:100F6000F0E0E55AFE4F80833DC0803B39F0E0F46D
:100F7000803A09F479C0883A09F09CCF84E08093E4
:100F8000D10110925A0110925901E0917C01F09127
:100F90007D0109958091590181110FC081E08093F5
:100FA00059011092390109C0803C09F4A6CF883C50
:100FB00009F4A3CF883B09F07DCFE0915A0181E08D
:100FC0008E0F80935A01F0E0E75CFE4F80818093A2
:100FD000BB0090915A018091590129C08091AC01C8
:100FE0008093BB0085EC8093BC0064CF9091CE01D0
:100FF0008091CD01981758F5E091CE0181E08E0FD8
:101000008093CE01F0E0E355FE4F8081E9CFE0917F
:10101000CE0181E08E0F8093CE018091BB00F0E085
:10102000E355FE4F80839091CE018091CD019817BA
:10103000C8F285E8D8CFE091CE0181E08E0F809391
:10104000CE018091BB00F0E0E355FE4F808380919C
:10105000D00181115CCF81E08093AB0184EA809361
:10106000BC001092D10126CF85EC8093BC00109279
:10107000D10180917B01803230F4E0917B01F0E07E
:10108000E55AFE4F108260917B0170E0E0917E0195
:10109000F0917F018BE591E0099510927B010ACFD9
:1010A0001092CF0134CFEBEFF1E01382128288EE81
:1010B00093E0A0E0B0E084839583A683B7832AE021
:1010C00031E03183208325EC30E03587248724EC20
:1010D00030E03787268720EC30E0318B208B21EC05
:1010E00030E0338B228B22EC30E0358B248B26ECE6
:1010F00030E0378B268B118E128E138E148EE8E91A
:10110000F2E01382128284839583A683B7838CE1F5
:1011100091E091838083A4EAB2E080E48C931296FC
:10112000FC93EE93119714961C921E9213970895B8
:10113000789484B5826084BD84B5816084BD85B5B2
:10114000826085BD85B5816085BD80916E008160BE
:1011500080936E0010928100809181008260809364
:101160008100809181008160809381008091800066
:101170008160809380008091B10084608093B10091
:101180008091B00081608093B00080917A0084608B
:1011900080937A0080917A00826080937A008091B7
:1011A0007A00816080937A0080917A0080688093D1
:1011B0007A001092C100E0910B02F0910C0282E0E3
:1011C0008083E0910702F09108021082E091090209
:1011D000F0910A028FEC808310921302E0910F02CB
:1011E000F091100286E08083E0910D02F0910E02F2
:1011F000808180618083E0910D02F0910E028081F8
:1012000088608083E0910D02F0910E0280818068F9
:101210008083E0910D02F0910E0280818F7D8083AA
:101220004AE050E06AE271E08BEF91E00E94270112
:1012300042E050E065E371E08BEF91E00E9427010E
:101240008091A7029091A802009711F00E94090CCA
:1012500086E090E00E946D0BEC018091A5029091D8
:10126000A6022091A40228839A8389831B8280E2AC
:1012700090E09D838C83D093A802C093A702109224
:101280008A01109289011092D8011092FA010E94ED
:101290005B0285E291E090937D0180937C0186E280
:1012A00091E090937F0180937E0181E08B83CE015A
:1012B0000E94A8038823C1F060E880E00E94A20495
:1012C0006AE070E080E090E00E94F30080E498E73C
:1012D000ADE7B1E08093A9029093AA02A093AB027C
:1012E000B093AC020E94CA040E94CA048CE08093AE
:1012F000B80000E010E0C0E050E040E060E070E1E5
:101300008C2F0E946A0464E670E080E090E00E9406
:10131000F30040E050E170E060E08C2F0E946A042E
:10132000CF5FC03149F70115110529F30E949101E2
:10133000882309F30E940000DECF5058BB27AA275C
:101340000E94B5090C94280B0E941A0B38F00E94D9
:10135000210B20F039F49F3F19F426F40C94170B5D
:101360000EF4E095E7FB0C94110BE92F0E94390B6A
:1013700058F3BA17620773078407950720F079F4CA
:10138000A6F50C945B0B0EF4E0950B2EBA2FA02D56
:101390000B01B90190010C01CA01A0011124FF2722
:1013A000591B99F0593F50F4503E68F11A16F0401D
:1013B000A22F232F342F4427585FF3CF469537951C
:1013C0002795A795F0405395C9F77EF41F16BA0BE1
:1013D000620B730B840BBAF09150A1F0FF0FBB1F8F
:1013E000661F771F881FC2F70EC0BA0F621F731FD8
:1013F000841F48F4879577956795B795F7959E3F35
:1014000008F0B0CF9395880F08F09927EE0F9795C5
:10141000879508950E94ED0A08F481E008950E94DE
:10142000230A0C94280B0E94210B58F00E941A0BDF
:1014300040F029F45F3F29F00C94110B51110C94EA
:101440005C0B0C94170B0E94390B68F39923B1F3D2
:10145000552391F3951B550BBB27AA2762177307DA
:10146000840738F09F5F5F4F220F331F441FAA1F6E
:10147000A9F335D00E2E3AF0E0E832D0915050402A
:10148000E695001CCAF72BD0FE2F29D0660F771FD8
:10149000881FBB1F261737074807AB07B0E809F0BE
:1014A000BB0B802DBF01FF2793585F4F3AF09E3F43
:1014B000510578F00C94110B0C945C0B5F3FE4F336
:1014C000983ED4F3869577956795B795F7959F5F86
:1014D000C9F7880F911D9695879597F90895E1E0D2
:1014E000660F771F881FBB1F621773078407BA0731
:1014F00020F0621B730B840BBA0BEE1F88F7E0958C
:1015000008950E94410B88F09F5798F0B92F9927B2
:10151000B751B0F0E1F0660F771F881F991F1AF0DE
:10152000BA95C9F714C0B13091F00E945B0BB1E0DD
:1015300008950C945B0B672F782F8827B85F39F0DC
:10154000B93FCCF3869577956795B395D9F73EF477
:1015500090958095709561957F4F8F4F9F4F08951F
:10156000E89409C097FB3EF490958095709561953D
:101570007F4F8F4F9F4F9923A9F0F92F96E9BB27F3
:101580009395F695879577956795B795F111F8CF6F
:10159000FAF4BB0F11F460FF1BC06F5F7F4F8F4FDA
:1015A0009F4F16C0882311F096E911C0772321F0D0
:1015B0009EE8872F762F05C0662371F096E8862F68
:1015C00070E060E02AF09A95660F771F881FDAF7BF
:1015D000880F9695879597F90895990F0008550FEC
:1015E000AA0BE0E8FEEF16161706E807F907C0F0A9
:1015F00012161306E407F50798F0621B730B840BB1
:10160000950B39F40A2661F0232B242B252B21F48A
:1016100008950A2609F4A140A6958FEF811D811D2A
:10162000089597F99F6780E870E060E008959FEF64
:1016300080EC089500240A94161617061806090669
:10164000089500240A941216130614060506089538
:10165000092E0394000C11F4882352F0BB0F40F4C0
:10166000BF2B11F460FF04C06F5F7F4F8F4F9F4F00
:10167000089557FD9058440F551F59F05F3F71F082
:101680004795880F97FB991F61F09F3F79F08795E9
:101690000895121613061406551FF2CF4695F1DF72
:1016A00008C0161617061806991FF1CF8695710502
:1016B000610508940895E894BB2766277727CB0136
:1016C00097F908950E94ED0A08F48FEF0895EE0F40
:1016D000FF1F0590F491E02D09940F931F93CF9372
:1016E000DF938230910510F482E090E0E091AF0248
:1016F000F091B00230E020E0B0E0A0E0309799F443
:101700002115310509F44AC0281B390B2430310555
:10171000D8F58A819B816115710589F1FB0193835D
:101720008283FE0111C040815181028113814817DB
:101730005907E0F04817590799F4109761F012968D
:101740000C93129713961C933296CF01DF91CF9191
:101750001F910F9108950093AF021093B002F4CF40
:101760002115310551F04217530738F0A901DB016B
:101770009A01BD01DF01F801C1CFEF01F9CF9093CC
:10178000B0028093AF02CDCFFE01E20FF31F819331
:1017900091932250310939832883D7CF2091AD020C
:1017A0003091AE02232B41F42091020130910301CC
:1017B0003093AE022093AD022091000130910101DF
:1017C0002115310541F42DB73EB7409104015091E8
:1017D0000501241B350BE091AD02F091AE02E2173A
:1017E000F307A0F42E1B3F0B2817390778F0AC0144
:1017F0004E5F5F4F2417350748F04E0F5F1F509321
:10180000AE024093AD02819391939FCFF0E0E0E070
:101810009CCFCF93DF930097E9F0FC0132971382BE
:101820001282A091AF02B091B002ED0130E020E051
:101830001097A1F420813181820F931F2091AD0276
:101840003091AE022817390709F061C0F093AE025B
:10185000E093AD02DF91CF910895EA01CE17DF0743
:10186000E8F54A815B819E0141155105B1F7E90117
:10187000FB83EA8349915991C40FD51FEC17FD07EB
:1018800061F4808191810296840F951FE90199830B
:101890008883828193819B838A83F0E0E0E01296C3
:1018A0008D919C9113970097B9F52D913C911197CB
:1018B000CD010296820F931F2091AD023091AE02AE
:1018C0002817390739F6309751F51092B002109267
:1018D000AF02B093AE02A093AD02BCCFD383C2835C
:1018E00040815181840F951FC817D90761F44E5F5D
:1018F0005F4F88819981480F591F518340838A81A6
:101900009B81938382832115310509F0B0CFF09339
:10191000B002E093AF029ECFFD01DC01C0CF138285
:101920001282D7CFF894FFCF0000B10280000000F0
:101930000000C701270154011402850163017701EA
:101940000000000038040B046704E1030404F10301
:10195000E2034750494F207465737421000D0A005B
:107E0000112484B714BE81FFF0D085E080938100F7
:107E100082E08093C00088E18093C10086E0809377
:107E2000C20080E18093C4008EE0C9D0259A86E02C
:107E300020E33CEF91E0309385002093840096BBD3
:107E4000B09BFECF1D9AA8958150A9F7CC24DD24C4
:107E500088248394B5E0AB2EA1E19A2EF3E0BF2EE7
:107E6000A2D0813461F49FD0082FAFD0023811F036
:107E7000013811F484E001C083E08DD089C08234E0
:107E800011F484E103C0853419F485E0A6D080C0E4
:107E9000853579F488D0E82EFF2485D0082F10E0AE
:107EA000102F00270E291F29000F111F8ED06801E7
:107EB0006FC0863521F484E090D080E0DECF843638
:107EC00009F040C070D06FD0082F6DD080E0C81688
:107ED00080E7D80618F4F601B7BEE895C0E0D1E017
:107EE00062D089930C17E1F7F0E0CF16F0E7DF06D8
:107EF00018F0F601B7BEE89568D007B600FCFDCFD4
:107F0000A601A0E0B1E02C9130E011968C91119780
:107F100090E0982F8827822B932B1296FA010C0160
:107F200087BEE89511244E5F5F4FF1E0A038BF0790
:107F300051F7F601A7BEE89507B600FCFDCF97BE46
:107F4000E89526C08437B1F42ED02DD0F82E2BD052
:107F50003CD0F601EF2C8F010F5F1F4F84911BD097
:107F6000EA94F801C1F70894C11CD11CFA94CF0C13
:107F7000D11C0EC0853739F428D08EE10CD085E9AC
:107F80000AD08FE07ACF813511F488E018D01DD067
:107F900080E101D065CF982F8091C00085FFFCCF94
:107FA0009093C60008958091C00087FFFCCF809118
:107FB000C00084FD01C0A8958091C6000895E0E648
:107FC000F0E098E1908380830895EDDF803219F02E
:107FD00088E0F5DFFFCF84E1DECF1F93182FE3DFCA
:107FE0001150E9F7F2DF1F91089580E0E8DFEE27F6
:047FF000FF270994CA
:027FFE00040479
:00000001FF
