:100000000C9458000C9480000C9480000C94800098
:100010000C9480000C9480000C9480000C94800060
:100020000C9480000C9480000C9480000C94800050
:100030000C9480000C9480000C9480000C94800040
:100040000C949D030C9480000C9480000C94800010
:100050000C9480000C9480000C9480000C94800020
:100060000C94E7030C948000000000002500280099
:100070002B00040404040404040402020202020229
:10008000030303030303010204081020408001025C
:1000900004081020010204081020000000080002DB
:1000A0000100000304070000000000000000C60675
:1000B00011241FBECFEFD8E0DEBFCDBF11E0A0E01E
:1000C000B1E0EEEBFDE002C005900D92AA35B1075C
:1000D000D9F722E0AAE5B1E001C01D92A932B2072A
:1000E000E1F710E0C8E5D0E004C02197FE010E94CE
:1000F000D706C735D107C9F70E9406050C94DD065F
:100100000C94000090E0FC01E656FF4F2491FC01A6
:10011000EA57FF4F3491FC01EE58FF4FE491EE2374
:10012000C9F0222339F0233001F1A8F4213019F16C
:10013000223029F1F0E0EE0FFF1FE859FF4FA591A3
:10014000B4918FB7F894EC91611126C030953E239D
:100150003C938FBF08952730A9F02830C9F0243090
:1001600049F7809180008F7D03C0809180008F7758
:1001700080938000DFCF84B58F7784BDDBCF84B5DB
:100180008F7DFBCF8091B0008F778093B000D2CF6E
:100190008091B0008F7DF9CF3E2BDACF3FB7F89436
:1001A0008091C9019091CA01A091CB01B091CC017D
:1001B00026B5A89B05C02F3F19F00196A11DB11DC2
:1001C0003FBFBA2FA92F982F8827BC01CD01620FFE
:1001D000711D811D911D42E0660F771F881F991FB9
:1001E0004A95D1F708958F929F92AF92BF92CF9286
:1001F000DF92EF92FF924B015C010E94CE006B01F7
:100200007C010E94CE006C197D098E099F09683E11
:10021000734081059105A8F321E0821A9108A10895
:10022000B10888EEC80E83E0D81EE11CF11C8114D1
:100230009104A104B10429F7FF90EF90DF90CF90D3
:10024000BF90AF909F908F9008950895089520914A
:100250009B01260F3327331F21323105ECF4209107
:10026000F301FC0190E080E0243069F082E0089521
:10027000A0919B012191AC0145585E4FA40FB52F71
:10028000B11D2C930196861798F380919B01680FFE
:1002900060939B0180E0089581E008951092F3013E
:1002A00081E08093F2011092CD0161E082E10E9431
:1002B000820061E083E10E948200E9EBF0E080814E
:1002C0008E7F808380818D7F808388E48093B800D7
:1002D00085E48093BC000895CF93DF9391E09093E1
:1002E0007A018823B9F0C091B800D091BA0080910A
:1002F000BC008A7B8093BC0060E082E10E948200A7
:1003000060E083E10E9482000E944E01D093BA0017
:10031000C093B800DF91CF9108958F929F92AF92D2
:10032000BF92CF92DF92EF92FF920F931F93CF93E2
:10033000DF93D0912802D13208F0D7C0182FC09196
:1003400027020E94CE006B017C018091F301811194
:100350006BC082E08093F3011093F2018FEF8093E2
:10036000F1011092F001D093EF01A7E0B2E0EFECC1
:10037000F1E080E0D81391C01092CE018091CE01BF
:10038000CC0FC82BC093CE018091CD01813009F0F4
:1003900088C01092CD010E94CE006B017C0180913B
:1003A000CE018093BB008091F5019091F601A09160
:1003B000F701B091F801892B8A2B8B2BA1F00E94B9
:1003C000CE000091F5011091F6012091F7013091D6
:1003D000F8016C197D098E099F0906171707280770
:1003E000390708F442C08091BC0083FDD8CF85EC6A
:1003F0008093BC000E94CE006B017C018091F301D0
:10040000823009F450C08091F1018F3F09F46FC030
:100410008091F101803209F46CC08091F101803348
:1004200009F469C084E026C08091F5019091F6013D
:10043000A091F701B091F801892B8A2B8B2B09F43D
:1004400084CF0E94CE008090F5019090F601A0909C
:10045000F701B090F8016C197D098E099F09861685
:100460009706A806B90608F070CF8091F4010E94A3
:100470006C0185E01092060210922802109205028B
:10048000DF91CF911F910F91FF90EF90DF90CF9070
:10049000BF90AF909F908F9008959D9191938F5FA3
:1004A00069CF85EEA5CF8091F5019091F601A091DD
:1004B000F701B091F801892B8A2B8B2B09F49ECF81
:1004C0000E94CE000091F5011091F6012091F701F4
:1004D0003091F8016C197D098E099F0906171707DD
:1004E0002807390708F08ACFC0CF81E0C3CF80E06A
:1004F000C1CF82E0BFCF83E0BDCF0895E091C301BB
:100500008091C201E81730F4F0E0E65AFE4F808196
:1005100090E008958FEF9FEF08959091C30180912F
:10052000C2012FEF3FEF981748F4E92FF0E0E65AA9
:10053000FE4F208130E09F5F9093C301C901089571
:100540008091C2019091C301891B990B0895CF92AC
:10055000DF92EF92FF920F931F93CF93DF937C0173
:10056000CB018A0120910502222389F0EB016B0166
:10057000C40ED51ECC15DD0569F06991D701ED914A
:10058000FC910190F081E02DC7010995F3CF642F14
:100590000E942701C801DF91CF911F910F91FF9019
:1005A000EF90DF90CF900895CF93DF931F92CDB758
:1005B000DEB76983209105022223F9F020912802F9
:1005C000203258F021E030E0FC013383228390E0B8
:1005D00080E00F90DF91CF91089580910602E82F7F
:1005E000F0E0E95FFD4F998190838F5F8093060271
:1005F0008093280281E090E0ECCF61E0CE0101968B
:100600000E942701F7CF90E080E00895CF93DF9319
:10061000D42FC52F91E0909305028093270210926A
:1006200006021092280289EF91E00E94D4026D2FF9
:1006300089EF91E00E94D4026C2F89EF91E00E9433
:10064000D40281E0DF91CF910C948D01CF93DF93A1
:10065000D82FC0E050E040E06C2F8D2F0E940603A1
:10066000CE5FC830B9F7DF91CF910895CF93C1E045
:10067000C09305028093270210920602109228026E
:1006800061E289EF91E00E94D40280E00E948D0136
:10069000C0930502109206021092280268EE89EFBC
:1006A00091E00E94D40280E00E948D01C093050277
:1006B000109206021092280261E889EF91E00E94F0
:1006C000D40281E0CF910C948D0185ED8093BC0024
:1006D0008091F5019091F601A091F701B091F80198
:1006E0000796A11DB11D23E0B695A795979587950F
:1006F0002A95D1F72091BC0024FD03C01092F3018C
:1007000008954091F5015091F6016091F7017091C3
:10071000F801452B462B472B69F30097A105B1053E
:1007200041F02AE22A95F1F700C00197A109B10929
:10073000E1CF8091F4010C946C011F920F920FB6DF
:100740000F9211242F933F938F939F93AF93BF9357
:100750008091C5019091C601A091C701B091C801D7
:100760003091C40123E0230F2D3758F50196A11DC8
:10077000B11D2093C4018093C5019093C601A0933D
:10078000C701B093C8018091C9019091CA01A0919D
:10079000CB01B091CC010196A11DB11D8093C9017F
:1007A0009093CA01A093CB01B093CC01BF91AF91BC
:1007B0009F918F913F912F910F900FBE0F901F909F
:1007C000189526E8230F0296A11DB11DD2CF1F92C6
:1007D0000F920FB60F9211242F933F934F935F9375
:1007E0006F937F938F939F93AF93BF93EF93FF93F9
:1007F0008091B900887F803609F44AC0F0F58832CC
:1008000009F4A7C018F5803109F49BC0B8F4882317
:1008100009F4F9C0883009F494C0FF91EF91BF91B9
:10082000AF919F918F917F916F915F914F913F9188
:100830002F910F900FBE0F901F901895883109F4DB
:1008400088C0803251F78093F10114C0803409F4DC
:100850009DC040F48033B9F38833F9F68093F101F9
:1008600085ECB0C0803509F485C0883509F496C0A0
:10087000883499F60E946503D0CF883909F48CC07A
:1008800038F5883729F050F4883611F0803729F68A
:1008900083E08093F3011092BD0157C0883809F4BA
:1008A0007BC0803919F0803809F0B7CF8091BD0145
:1008B000803208F071C0E091BD0181E08E0F80931D
:1008C000BD018091BB00F0E0E356FE4F80833DC048
:1008D000803B39F0E0F4803A09F479C0883A09F0B5
:1008E0009CCF84E08093F30110929C0110929B01B5
:1008F000E091C001F091C101099580919B018111A6
:100900000FC081E080939B0110927B0109C0803C65
:1009100009F4A6CF883C09F4A3CF883B09F07DCF2A
:10092000E0919C0181E08E0F80939C01F0E0E558FE
:10093000FE4F80818093BB0090919C0180919B0130
:1009400029C08091CE018093BB0085EC8093BC00D0
:1009500064CF9091F0018091EF01981758F5E091E4
:10096000F00181E08E0F8093F001F0E0E153FE4F43
:100970008081E9CFE091F00181E08E0F8093F0015A
:100980008091BB00F0E0E153FE4F80839091F00135
:100990008091EF019817C8F285E8D8CFE091F00177
:1009A00081E08E0F8093F0018091BB00F0E0E15375
:1009B000FE4F80838091F20181115CCF81E08093B2
:1009C000CD0184EA8093BC001092F30126CF85EC20
:1009D0008093BC001092F3018091BD01803230F40D
:1009E000E091BD01F0E0E356FE4F10826091BD0141
:1009F00070E0E091BE01F091BF018DE991E00995B1
:100A00001092BD010ACF1092F10134CF789484B5D1
:100A1000826084BD84B5816084BD85B5826085BDFA
:100A200085B5816085BD80916E00816080936E0088
:100A3000109281008091810082608093810080917A
:100A4000810081608093810080918000816080932B
:100A500080008091B10084608093B1008091B000EB
:100A600081608093B00080917A00846080937A00E6
:100A700080917A00826080937A0080917A00816010
:100A800080937A0080917A00806880937A00109237
:100A9000C1001092C3011092C2011092060210927E
:100AA00028020E944E0185E291E09093C10180935B
:100AB000C00186E291E09093BF018093BE0180E780
:100AC0000E94360381E70E94360380E70E942603D6
:100AD00081E70E94260364EF71E080E090E00E94CD
:100AE000F30000E010E072E1E72E71E0F72EC0E0C5
:100AF000F701419151917F016C2F80E70E9406031D
:100B000068EC70E080E090E00E94F300CE5FC830B7
:100B100079F76AE1E62E61E0F62EC0E0F701419137
:100B200051917F016C2F81E70E94060368EC70E011
:100B300080E090E00E94F300CE5FC83079F768EC67
:100B400070E080E090E00E94F30080E70E942603BE
:100B500081E70E94260368EC70E080E090E00E944C
:100B6000F3004FEF50E060E080E70E94060368EC7E
:100B700070E080E090E00E94F3004FEE50E062E011
:100B800080E70E94060368EC70E080E090E00E943D
:100B9000F30064EF71E080E090E00E94F30080E7F2
:100BA0000E94260381E70E94260364EF71E080E043
:100BB00090E00E94F30056E2E52E51E0F52EC0E0F1
:100BC000F701419151917F016C2F80E70E9406034C
:100BD00068EC70E080E090E00E94F300CE5FC830E7
:100BE00079F74EE2E42E41E0F42EC0E0F7014191A6
:100BF00051917F016C2F81E70E94060368EC70E041
:100C000080E090E00E94F300CE5FC83079F768EC96
:100C100070E080E090E00E94F30080E70E942603ED
:100C200081E70E94260368EC70E080E090E00E947B
:100C3000F30036E3E32E31E0F32EC0E0F7014191FB
:100C400051917F016C2F80E70E94060368EC70E0F1
:100C500080E090E00E94F300CE5FC83079F72EE389
:100C6000E22E21E0F22EC0E0F701419151917F0187
:100C70006C2F81E70E94060368EC70E080E090E052
:100C80000E94F300CE5FC83079F764EF71E080E036
:100C900090E00E94F30080E70E94260381E70E9413
:100CA000260364EF71E080E090E00E94F30096E498
:100CB000E92E91E0F92EC0E0F701419151917F01B9
:100CC0006C2F80E70E94060368EC70E080E090E003
:100CD0000E94F300CE5FC83079F78EE4E82E81E001
:100CE000F82EC0E0F701419151917F016C2F81E70F
:100CF0000E94060368EC70E080E090E00E94F30040
:100D0000CE5FC83079F764EF71E080E090E00E9438
:100D1000F30080E70E94260381E70E94260364EF28
:100D200071E080E090E00E94F30040E055E160E077
:100D300080E70E94060368EC70E080E090E00E948B
:100D4000F30049E05CE062E080E70E94060368ECA3
:100D500070E080E090E00E94F30064EF71E080E0DA
:100D600090E00E94F30080E70E94260381E70E9442
:100D7000260364EF71E080E090E00E94F30001152B
:100D8000110509F4B0CE0E940000ADCEE9EFF1E00C
:100D90001382128288EE93E0A0E0B0E08483958312
:100DA000A683B78384E091E0918380830895EE0F5A
:0E0DB000FF1F0590F491E02D0994F894FFCFF9
:100DBE0000000000D402A70203037D02A0028D02F0
:100DCE007E023F0C0604DB008F00E600ED00FD0006
:100DDE000114FF00EF00F7008F1239000F12F90017
:100DEE00F100BD00F60009121E0070243800360511
:100DFE0036213F00F3003F20F3208D0101123E000B
:0A0E0E00300C3628002D0015090CE9
:00000001FF
