:100000000C945D000C9485000C9485000C94850084
:100010000C9485000C9485000C9485000C9485004C
:100020000C9485000C9485000C9485000C94D302EC
:100030000C9485000C9485000C9485000C9485002C
:100040000C9431020C9485000C94A1020C947B0258
:100050000C9485000C9485000C9485000C9485000C
:100060000C9485000C9485000000000024002700FB
:100070002A0000000000250028002B0004040404CE
:100080000404040402020202020203030303030342
:10009000010204081020408001020408102001021F
:1000A00004081020000000080002010000030407FB
:1000B00000000000000000008F0311241FBECFEFDE
:1000C000D8E0DEBFCDBF11E0A0E0B1E0ECE4FCE0A1
:1000D00002C005900D92AE33B107D9F722E0AEE32E
:1000E000B1E001C01D92AD30B207E1F710E0CDE5FF
:1000F000D0E004C02197FE010E941E06CC35D10736
:10010000C9F70E94EC030C9424060C94000090E0C4
:10011000FC01EC55FF4F2491FC01E057FF4F349157
:10012000FC01E458FF4FE491EE23C9F0222339F09B
:10013000233001F1A8F4213019F1223029F1F0E047
:10014000EE0FFF1FEE58FF4FA591B4918FB7F894B3
:10015000EC91611126C030953E233C938FBF0895EA
:100160002730A9F02830C9F0243049F78091800069
:100170008F7D03C0809180008F7780938000DFCFD8
:1001800084B58F7784BDDBCF84B58F7DFBCF809125
:10019000B0008F778093B000D2CF8091B0008F7D78
:1001A000F9CF3E2BDACFAF92BF92CF92DF92EF9290
:1001B000FF920F931F93CF93DF936C017B018B0111
:1001C000040F151FEB015E01AE18BF08C017D10761
:1001D00059F06991D601ED91FC910190F081E02DEB
:1001E000C6010995892B79F7C501DF91CF911F9140
:1001F0000F91FF90EF90DF90CF90BF90AF90089558
:10020000FC01538D448D252F30E0842F90E0821B1C
:10021000930B541710F0CF96089501970895FC01A1
:10022000918D828D981761F0A28DAE0FBF2FB11DF9
:100230005D968C91928D9F5F9F73928F90E0089551
:100240008FEF9FEF0895FC01918D828D981731F00B
:10025000828DE80FF11D858D90E008958FEF9FEF5F
:100260000895FC01918D228D892F90E0805C9F4F35
:10027000821B91098F739927089588E491E00E9469
:10028000310121E0892B09F420E0822F089580E0DC
:1002900090E0892B29F00E943D0181110C9400000F
:1002A0000895FC01A48DA80FB92FB11DA35ABF4F0B
:1002B0002C91848D90E001968F739927848FA68965
:1002C000B7892C93A089B1898C91837080648C93B9
:1002D000938D848D981306C00288F389E02D808168
:1002E0008F7D80830895EF92FF920F931F93CF939A
:1002F000DF93EC0181E0888F9B8D8C8D98131AC061
:10030000E889F989808185FF15C09FB7F894EE8947
:10031000FF896083E889F9898081837080648083A4
:100320009FBF81E090E0DF91CF911F910F91FF90EF
:10033000EF900895F62E0B8D10E00F5F1F4F0F7397
:100340001127E02E8C8D8E110CC00FB607FCFACF52
:10035000E889F989808185FFF5CFCE010E9451019E
:10036000F1CFEB8DEC0FFD2FF11DE35AFF4FF08223
:100370009FB7F8940B8FEA89FB8980818062CFCF89
:10038000CF93DF93EC01888D8823B9F0AA89BB89CC
:10039000E889F9898C9185FD03C0808186FD0DC0B7
:1003A0000FB607FCF7CF8C9185FFF2CF808185FFD8
:1003B000EDCFCE010E945101E9CFDF91CF91089599
:1003C000FC0101900020E9F73197AF01481B590B60
:1003D000BC0188E491E00C94D3008F929F92AF927D
:1003E000BF920F931F93CF93DF93CDB7DEB7A19743
:1003F0000FB6F894DEBF0FBECDBF19A2423008F48D
:100400004AE08E010F5D1F4F842E912CB12CA12C40
:10041000A50194010E94DA05E62FB901CA01EA306C
:10042000F4F4E05DD801EE938D01232B242B252BD2
:1004300079F790E080E0109719F0CD010E94E0017B
:10044000A1960FB6F894DEBF0FBECDBFDF91CF915E
:100450001F910F91BF90AF909F908F900895E95C8E
:10046000E1CF1F920F920FB60F9211242F933F935B
:100470008F939F93AF93BF938091440190914501D7
:10048000A0914601B09147013091430123E0230F31
:100490002D3758F50196A11DB11D2093430180937E
:1004A000440190934501A0934601B0934701809188
:1004B0003F0190914001A0914101B091420101960C
:1004C000A11DB11D80933F0190934001A093410174
:1004D000B0934201BF91AF919F918F913F912F9126
:1004E0000F900FBE0F901F90189526E8230F0296CD
:1004F000A11DB11DD2CF1F920F920FB60F921124E2
:100500002F933F934F935F936F937F938F939F931B
:10051000AF93BF93EF93FF9388E491E00E94510162
:10052000FF91EF91BF91AF919F918F917F916F91CB
:100530005F914F913F912F910F900FBE0F901F90A1
:1005400018951F920F920FB60F9211242F938F932D
:100550009F93EF93FF93E0915801F09159018081AF
:10056000E0915E01F0915F0182FD1BC0908180915E
:1005700061018F5F8F7320916201821741F0E091DA
:100580006101F0E0E85BFE4F958F80936101FF9180
:10059000EF919F918F912F910F900FBE0F901F9011
:1005A00018958081F4CF1F920F920FB60F921124ED
:1005B0002F933F934F935F936F937F938F939F936B
:1005C000AF93BF93CF93DF93EF93FF9380913E015F
:1005D000C0910902D0E087FF24C0109285001092DC
:1005E000840080913E018F5F80933E0180913E01A7
:1005F000082E000C990B8C179D0724F480913E0166
:100600008C30C4F1809184009091850004968034F0
:100610009C4908F47AC080918400909185000496EA
:1006200076C080913E01082E000C990B8C179D0717
:10063000C4F6E0913E018E2FEE0F990BFC01EE0FF8
:10064000FF1FE80FF91FEB51FE4F808186FFC9CFD6
:10065000E0913E018E2FEE0F990BFC01EE0FFF1F74
:10066000E80FF91FEB51FE4F808160E08F730E940D
:100670008700B7CF2091840030918500E0913E0142
:100680008E2FEE0F990BFC01EE0FFF1FE80FF91FE5
:10069000EB51FE4F81819281820F931F90938900CD
:1006A00080938800E0913E018E2FEE0F990BFC01A4
:1006B000EE0FFF1FE80FF91FEB51FE4F808186FF01
:1006C00011C0E0913E018E2FEE0F990BFC01EE0F51
:1006D000FF1FE80FF91FEB51FE4F808161E08F7320
:1006E0000E948700FF91EF91DF91CF91BF91AF9171
:1006F0009F918F917F916F915F914F913F912F913A
:100700000F900FBE0F901F90189580E49CE9909376
:100710008900809388008FEF80933E01E3CF109291
:100720004B0110924A0188EE93E0A0E0B0E0809384
:100730004C0190934D01A0934E01B0934F0184E082
:1007400091E0909349018093480185EC90E090936B
:1007500055018093540184EC90E09093570180936D
:10076000560180EC90E0909359018093580181EC00
:1007700090E090935B0180935A0182EC90E090931B
:100780005D0180935C0186EC90E090935F01809323
:100790005E01109261011092620110926301109249
:1007A0006401809109028C3098F491E0980F909345
:1007B000090280930A0290E0FC01EE0FFF1FE80F90
:1007C000F91FEB51FE4F88EB9BE0928381830895E4
:1007D0008FEF80930A020895789484B5826084BD77
:1007E00084B5816084BD85B5826085BD85B5816035
:1007F00085BD80916E00816080936E0010928100B3
:10080000809181008260809381008091810081606D
:10081000809381008091800081608093800080912E
:10082000B10084608093B1008091B00081608093BA
:10083000B00080917A00846080937A0080917A0081
:10084000826080937A0080917A00816080937A0040
:1008500080917A00806880937A001092C100E091C4
:100860005801F091590182E08083E0915401F091A8
:1008700055011082E0915601F09157018FEC808371
:1008800010926001E0915C01F0915D0186E080834F
:10089000E0915A01F0915B01808180618083E09159
:1008A0005A01F0915B01808188608083E0915A0158
:1008B000F0915B01808180688083E0915A01F09122
:1008C0005B0180818F7D808380910A028C3008F0EB
:1008D00068C0E6E9F0E02491E2E8F0E08491882342
:1008E00099F090E0880F991FFC01E859FF4FA591FE
:1008F000B491FC01EE58FF4F859194918FB7F89415
:10090000EC91E22BEC938FBF80910A02282F30E00C
:10091000F901EE0FFF1FE20FF31FEB51FE4F908125
:10092000907C9660908310920B0210920C022CE047
:10093000622F0E940B06829FB001112430E020E05C
:10094000AB01420F531FFA01EE0FFF1FE40FF51F1B
:10095000EB51FE4F908196FD16C02F5F3F4F2C301C
:10096000310571F781110FC01092800082E08093F1
:1009700081001092850010928400B19A80916F00DE
:10098000826080936F00E0910A028E2F90E0FC015C
:10099000EE0FFF1FE80FF91FEB51FE4F80818064BF
:1009A0008083C8E82C2E312C08E512E0C0E0D0E0AE
:1009B00062E460937C0080917A00806480937A0086
:1009C00080917A0086FDFCCFA0917800B0917900EB
:1009D0004D010B2E000CAA08BB0823EB30E00E944F
:1009E00017062FEF33E040E050E00E94A8056901B0
:1009F0007A01203272E03707C4F580910B02910131
:100A0000281B310987FD3395220F331F220F331F17
:100A10002901330F6608770880910C029801281B82
:100A2000310987FD3395220F331F220F331F032E09
:100A3000000C440B550B2419350946095709D601FA
:100A4000A53BB10514F0A4EBB0E0B7FF02C0B0E0E5
:100A5000A0E00E94D20524EB30E040E050E00E948C
:100A6000A805240D351D461D571D40910A024C3026
:100A700080F580910B02B101681B710987FD7395A8
:100A8000CB01880F991F880F991F2817390784F009
:100A900080910C02B801681B710987FD7395CB0129
:100AA000880F991F880F991F281739070CF4C9015F
:100AB0000297880F991F6FB7F89450E09A01220FA0
:100AC000331F240F351FF901EB51FE4F92838183B1
:100AD0006FBF82E191E00E94E0014AE0C501B401EC
:100AE000B7FE0DC06DE288E491E00E9473016627B5
:100AF0007727CB01681979098A099B094AE00E9486
:100B0000ED018CE291E00E94E0014AE0C701B601EC
:100B1000F7FE0DC06DE288E491E00E947301662744
:100B20007727CB016C197D098E099F094AE00E9445
:100B3000ED018BE391E00E94E001209709F438CFAA
:100B40000E943D01882309F433CF0E94000030CF7A
:100B5000052E97FB1EF400940E94BF0557FD07D099
:100B60000E94DA0507FC03D04EF40C94BF055095A3
:100B70004095309521953F4F4F4F5F4F0895909589
:100B80008095709561957F4F8F4F9F4F08950E947C
:100B9000FC05A59F900DB49F900DA49F800D911D05
:100BA00011240895B7FF0C94C7050E94C705821B46
:100BB000930B0895A1E21A2EAA1BBB1BFD010DC0C9
:100BC000AA1FBB1FEE1FFF1FA217B307E407F507FD
:100BD00020F0A21BB30BE40BF50B661F771F881FD9
:100BE000991F1A9469F760957095809590959B016F
:100BF000AC01BD01CF010895A29FB001B39FC00118
:100C0000A39F700D811D1124911DB29F700D811D38
:100C10001124911D0895991B79E004C0991F96171E
:100C200008F0961B881F7A95C9F7809508950E9451
:100C3000FC05B7FF0895821B930B0895EE0FFF1F6D
:0C0C40000590F491E02D0994F894FFCF8A
:100C4C00000000007301D3000001C00131010F014D
:100C5C00230156616C6F7220646F20506F74656E47
:100C6C006369C3B46D6574726F3A2000207C2056A2
:0E0C7C00616C6F722050574D3A20000D0A0037
:00000001FF
