:100000000C945B000C9483000C9483000C9483008C
:100010000C9483000C9483000C9483000C94830054
:100020000C9483000C9483000C9483000C94830044
:100030000C9483000C9483000C9483000C94830034
:100040000C946B050C9483000C94DB050C94B505A3
:100050000C9483000C9483000C9483000C94830014
:100060000C940D060C948300302E342E31000000C9
:100070000000250028002B000404040404040404E8
:100080000202020202020303030303030102040843
:1000900010204080010204081020010204081020F2
:1000A0000000000800020100000304070000000037
:1000B000000000002C0711241FBECFEFD8E0DEBFE8
:1000C000CDBF11E0A0E0B1E0E0E8F2E102C00590B0
:1000D0000D92A83DB107D9F723E0A8EDB1E001C02A
:1000E0001D92A035B207E1F710E0CBE5D0E004C0E7
:1000F0002197FE010E943809CA35D107C9F70E942D
:1001000073070C943E090C94000090E0FC01E0564B
:10011000FF4F2491FC01E457FF4F3491FC01E85854
:10012000FF4FE491EE23C9F0222339F0233001F18F
:10013000A8F4213019F1223029F1F0E0EE0FFF1F71
:10014000E259FF4FA591B4918FB7F894EC916111EA
:1001500026C030953E233C938FBF08952730A9F0E9
:100160002830C9F0243049F7809180008F7D03C08A
:10017000809180008F7780938000DFCF84B58F7768
:1001800084BDDBCF84B58F7DFBCF8091B0008F77AE
:100190008093B000D2CF8091B0008F7DF9CF3E2BFD
:1001A000DACF3FB7F8948091470290914802A0912E
:1001B0004902B0914A0226B5A89B05C02F3F19F00D
:1001C0000196A11DB11D3FBFBA2FA92F982F8827D7
:1001D000BC01CD01620F711D811D911D42E0660FB2
:1001E000771F881F991F4A95D1F708958F929F9284
:1001F000AF92BF92CF92DF92EF92FF924B015C01E0
:100200000E94D1006B017C010E94D1006C197D0914
:100210008E099F09683E734081059105A8F321E08E
:10022000821A9108A108B10888EEC80E83E0D81E92
:10023000E11CF11C81149104A104B10429F7FF9081
:10024000EF90DF90CF90BF90AF909F908F900895E8
:1002500008950895AF92BF92CF92DF92EF92FF92EE
:100260000F931F93CF93DF936C017B018B01040FDE
:10027000151FEB015E01AE18BF08C017D10759F07A
:100280006991D601ED91FC910190F081E02DC601BC
:100290000995892B79F7C501DF91CF911F910F91B6
:1002A000FF90EF90DF90CF90BF90AF900895FC014A
:1002B000538D448D252F30E0842F90E0821B930BCB
:1002C000541710F0CF96089501970895FC01918D71
:1002D000828D981761F0A28DAE0FBF2FB11D5D9674
:1002E0008C91928D9F5F9F73928F90E008958FEF16
:1002F0009FEF0895FC01918D828D981731F0828DCA
:10030000E80FF11D858D90E008958FEF9FEF089520
:10031000FC01918D228D892F90E0805C9F4F821B84
:1003200091098F73992708958BE992E00E948801C3
:1003300021E0892B09F420E0822F089580E090E0ED
:10034000892B29F00E94940181110C9400000895DA
:10035000FC01A48DA80FB92FB11DA35ABF4F2C913A
:10036000848D90E001968F739927848FA689B78931
:100370002C93A089B1898C91837080648C93938D28
:10038000848D981306C00288F389E02D80818F7DCB
:1003900080830895EF92FF920F931F93CF93DF9383
:1003A000EC0181E0888F9B8D8C8D98131AC0E889B1
:1003B000F989808185FF15C09FB7F894EE89FF8980
:1003C0006083E889F98980818370806480839FBF1E
:1003D00081E090E0DF91CF911F910F91FF90EF901E
:1003E0000895F62E0B8D10E00F5F1F4F0F7311272E
:1003F000E02E8C8D8E110CC00FB607FCFACFE88969
:10040000F989808185FFF5CFCE010E94A801F1CF47
:10041000EB8DEC0FFD2FF11DE35AFF4FF0829FB7DC
:10042000F8940B8FEA89FB8980818062CFCFCF93CC
:10043000DF93EC01888D8823B9F0AA89BB89E8890C
:10044000F9898C9185FD03C0808186FD0DC00FB6B2
:1004500007FCF7CF8C9185FFF2CF808185FFEDCF30
:10046000CE010E94A801E9CFDF91CF91089520919C
:100470001902260F3327331F21323105ECF4209166
:100480007102FC0190E080E0243069F082E0089580
:10049000A09119022191AC0147505E4FA40FB52FD6
:1004A000B11D2C930196861798F380911902680F5D
:1004B0006093190280E0089581E00895109271021E
:1004C00081E08093700210924B0261E082E10E9411
:1004D000850061E083E10E948500E9EBF0E0808126
:1004E0008E7F808380818D7F808388E48093B800B5
:1004F00085E48093BC000895CF93DF9391E09093BF
:10050000F8018823B9F0C091B800D091BA00809169
:10051000BC008A7B8093BC0060E082E10E94850081
:1005200060E083E10E9485000E945E02D093BA00E1
:10053000C093B800DF91CF910895CF92DF92EF92F0
:10054000FF920F931F93CF93DF93D0919A0281E094
:10055000D13208F09CC0C09199020E94D1006B0179
:100560007C018091710281116CC082E080937102E4
:1005700081E0809370028FEF80936F0210926E0281
:10058000D0936D02A9E7B2E0EDE4F2E080E0D81389
:100590008DC010924C0280914C02CC0FC82BC0939E
:1005A0004C0280914B02813009F084C010924B02C2
:1005B0000E94D1006B017C0180914C028093BB00B2
:1005C0008091730290917402A0917502B0917602AD
:1005D000892B8A2B8B2BA1F00E94D10000917302F2
:1005E0001091740220917502309176026C197D0988
:1005F0008E099F09061717072807390708F442C014
:100600008091BC0083FDD8CF85EC8093BC000E9414
:10061000D1006B017C0180917102823009F44CC0E1
:1006200080916F028F3F09F469C080916F02803220
:1006300009F466C080916F02803309F463C084E0DE
:1006400026C08091730290917402A0917502B091BE
:100650007602892B8A2B8B2B09F483CF0E94D10041
:10066000009173021091740220917502309176020C
:100670006C197D098E099F09061717072807390786
:1006800008F06FCF809172020E947C0285E0109288
:10069000780210929A0210927702DF91CF911F9107
:1006A0000F91FF90EF90DF90CF9008959D919193DF
:1006B0008F5F6DCF85EEA9CF809173029091740208
:1006C000A0917502B0917602892B8A2B8B2B09F4AD
:1006D000A2CF0E94D1000091730210917402209168
:1006E0007502309176026C197D098E099F090617F3
:1006F00017072807390708F08ECFC4CF80E0C7CF8F
:1007000082E0C5CF83E0C3CF0F931F93CF93C62F53
:10071000682F70E080914A038B010C5B1C4F88238B
:1007200029F0D80111968C918C1769F180914E03B4
:1007300090914F032091440331E03093770220934E
:1007400099021092780210929A02660F771FDC01CC
:10075000ED91FC910190F081E02D099580914E037F
:1007600090914F03DC01ED91FC910190F081E02D1F
:100770006C2F09950E949D0280914A03811101C04E
:10078000C3E6F801C183CF911F910F910895CF93D4
:10079000DF93EC0180E024E030E090E1E82FF0E02E
:1007A00040914B03B901641B7109E617F70744F444
:1007B000EC0FFD1F4081411103C090838F5FEECF8E
:1007C000E881F0E0EC5FFE4F608180E00E948403EE
:1007D000E981F0E0EC5FFE4F608181E00E948403DC
:1007E000EA81F0E0EC5FFE4F608183E00E948403C9
:1007F000EB81F0E0EC5FFE4F608184E0DF91CF9110
:100800000C948403CF93DF9300D000D0CDB7DEB734
:10081000FC019C0197FF04C022273327281B390BBA
:10082000C90164E670E00E941009362F8CE9689FC8
:10083000200D11245AE0862F652F0E940409898318
:1008400046EF849F300D11243A83822F0E940409C1
:100850008B83849F200D11242C83F7FF18C04091B7
:100860004B03433090F4FE01319690E080E024E0A9
:1008700030E0241B310940E182179307A4F4508132
:10088000511111C041930196F7CF81E18983CE01C7
:1008900001960E94C70381E00F900F900F900F9078
:1008A000DF91CF9108958C0F9D1F21E1FC012083E2
:1008B000EECFCF93DF9300D000D0CDB7DEB78091DD
:1008C000000190910101A0910201B091030189837F
:1008D0009A83AB83BC83CE0101960E94C70360E07C
:1008E00082E00E9484030F900F900F900F90DF9191
:1008F000CF910895E4E4F3E0A285B385908121E0EF
:1009000020937702909399021092780210929A02A3
:10091000ED91FC9111970190F081E02D682FCD01B0
:1009200009950C949D0281E20E947A0481E80C945E
:100930007A040895E091410280914002E81730F472
:10094000F0E0E852FE4F808190E008958FEF9FEF36
:10095000089590914102809140022FEF3FEF981748
:1009600048F4E92FF0E0E852FE4F208130E09F5F2D
:1009700090934102C90108958091400290914102F3
:10098000891B990B0895CF92DF92EF92FF920F93FC
:100990001F93CF93DF937C01CB018A0120917702D3
:1009A000222389F0EB016B01C40ED51ECC15DD05A9
:1009B00069F06991D701ED91FC910190F081E02DF2
:1009C000C7010995F3CF642F0E943702C801DF9158
:1009D000CF911F910F91FF90EF90DF90CF900895EE
:1009E000CF93DF931F92CDB7DEB769832091770253
:1009F0002223F9F020919A02203258F021E030E0D1
:100A0000FC013383228390E080E00F90DF91CF914F
:100A1000089580917802E82FF0E0E758FD4F998122
:100A200090838F5F8093780280939A0281E090E0B8
:100A3000ECCF61E0CE0101960E943702F7CF90E043
:100A400080E00895FC0101900020E9F73197AF01A3
:100A5000481B590BBC018BE992E00C942A018CE3F2
:100A600091E00C94220585ED8093BC008091730287
:100A700090917402A0917502B09176020796A11D23
:100A8000B11D23E0B695A795979587952A95D1F73F
:100A90002091BC0024FD03C0109271020895409182
:100AA0007302509174026091750270917602452B29
:100AB000462B472B69F30097A105B10541F02AE2C7
:100AC0002A95F1F700C00197A109B109E1CF809102
:100AD00072020C947C021F920F920FB60F92112497
:100AE0002F933F938F939F93AF93BF938091430234
:100AF00090914402A0914502B09146023091420289
:100B000023E0230F2D3758F50196A11DB11D209329
:100B100042028093430290934402A0934502B09313
:100B200046028091470290914802A0914902B091FB
:100B30004A020196A11DB11D80934702909348027D
:100B4000A0934902B0934A02BF91AF919F918F91B8
:100B50003F912F910F900FBE0F901F90189526E890
:100B6000230F0296A11DB11DD2CF1F920F920FB677
:100B70000F9211242F933F934F935F936F937F9323
:100B80008F939F93AF93BF93EF93FF938BE992E083
:100B90000E94A801FF91EF91BF91AF919F918F911A
:100BA0007F916F915F914F913F912F910F900FBE69
:100BB0000F901F9018951F920F920FB60F9211244D
:100BC0002F938F939F93EF93FF93E091AB02F0915C
:100BD000AC028081E091B102F091B20282FD1BC0B3
:100BE00090818091B4028F5F8F732091B50282173C
:100BF00041F0E091B402F0E0E556FD4F958F80930F
:100C0000B402FF91EF919F918F912F910F900FBEA2
:100C10000F901F9018958081F4CF1F920F920FB6FE
:100C20000F9211242F933F934F935F936F937F9372
:100C30008F939F93AF93BF93EF93FF938091B900EE
:100C4000887F803609F44AC0F0F5883209F4A7C0DD
:100C500018F5803109F49BC0B8F4882309F4F9C071
:100C6000883009F494C0FF91EF91BF91AF919F91AB
:100C70008F917F916F915F914F913F912F910F9045
:100C80000FBE0F901F901895883109F488C08032EC
:100C900051F780936F0214C0803409F49DC040F472
:100CA0008033B9F38833F9F680936F0285ECB0C0D6
:100CB000803509F485C0883509F496C0883499F6E2
:100CC0000E943305D0CF883909F48CC038F58837B5
:100CD00029F050F4883611F0803729F683E08093AC
:100CE000710210923B0257C0883809F47BC08039EA
:100CF00019F0803809F0B7CF80913B02803208F0BC
:100D000071C0E0913B0281E08E0F80933B028091A5
:100D1000BB00F0E0E55EFD4F80833DC0803B39F0D5
:100D2000E0F4803A09F479C0883A09F09CCF84E075
:100D30008093710210921A0210921902E0913E0201
:100D4000F0913F0209958091190281110FC081E055
:100D5000809319021092F90109C0803C09F4A6CFD2
:100D6000883C09F4A3CF883B09F07DCFE0911A02BB
:100D700081E08E0F80931A02F0E0E750FE4F8081F1
:100D80008093BB0090911A028091190229C0809132
:100D90004C028093BB0085EC8093BC0064CF9091A3
:100DA0006E0280916D02981758F5E0916E0281E015
:100DB0008E0F80936E02F0E0E35BFD4F8081E9CF00
:100DC000E0916E0281E08E0F80936E028091BB00F5
:100DD000F0E0E35BFD4F808390916E0280916D02A5
:100DE0009817C8F285E8D8CFE0916E0281E08E0FA7
:100DF00080936E028091BB00F0E0E35BFD4F808347
:100E00008091700281115CCF81E080934B0284EA73
:100E10008093BC001092710226CF85EC8093BC00B9
:100E20001092710280913B02803230F4E0913B02DB
:100E3000F0E0E55EFD4F108260913B0270E0E091D2
:100E40003C02F0913D028BE192E0099510923B0249
:100E50000ACF10926F0234CFEBE9F2E013821282D4
:100E600048EE53E060E070E0448355836683778307
:100E70008CE191E09183808385EC90E09587848775
:100E800084EC90E09787868780EC90E0918B808B54
:100E900081EC90E0938B828B82EC90E0958B848B3D
:100EA00086EC90E0978B868B118E128E138E148EAB
:100EB000A8E3B3E013961C921E92129714964D93DA
:100EC0005D936D937C9317978EE291E011969C93BE
:100ED0008E93E4E4F3E081E08683178281E78083E8
:100EE000B387A2870895789484B5826084BD84B561
:100EF000816084BD85B5826085BD85B5816085BD15
:100F000080916E00816080936E00109281008091CC
:100F10008100826080938100809181008160809354
:100F20008100809180008160809380008091B10079
:100F300084608093B1008091B00081608093B000A4
:100F400080917A00846080937A0080917A00826038
:100F500080937A0080917A00816080937A008091FA
:100F60007A00806880937A001092C100E091AB0211
:100F7000F091AC0282E08083E091A702F091A80298
:100F80001082E091A902F091AA0280E18083109280
:100F9000B302E091AF02F091B00286E08083E0916D
:100FA000AD02F091AE02808180618083E091AD025C
:100FB000F091AE02808188608083E091AD02F09173
:100FC000AE02808180688083E091AD02F091AE0234
:100FD00080818F7D80838FE391E00E9422050E94B3
:100FE0002F058BE991E00E942205C8E6D0E0FE01C2
:100FF0006491662339F08BE992E00E94CA01219640
:10100000892BA9F70E942F051092410210924002ED
:101010000E945E0288E291E090933F0280933E023C
:1010200089E291E090933D0280933C0288E48093B2
:10103000B80080914403C1E0C09377028093990285
:101040001092780210929A020E949D02811120C093
:101050000E9493040E945904C0934B0383E680933B
:10106000450380934603809347038093480380930E
:10107000490380914C03883031F088E080934C0321
:1010800088EE0E947A0410924D0381E80E947A044F
:101090000E94930480914C03823031F082E080936F
:1010A0004C0382EE0E947A040E94590410924D0370
:1010B00081E80E947A0411E004E080E0E82E80E0FC
:1010C000F82E81EB91E00E942205C4E0C0934B030F
:1010D00090E080E00E94020468EE73E080E090E01F
:1010E0000E94F600C0934B0388E090E00E94020447
:1010F00068EE73E080E090E00E94F600C0934B033E
:1011000088EF9FEF0E94020468EE73E080E090E0B9
:101110000E94F600C150D0F6C0E0C0934B0390E0AF
:1011200080E00E94020468EE73E080E090E00E949C
:10113000F600C0934B0388E090E00E94020468EE42
:1011400073E080E090E00E94F600C0934B0388EFCC
:101150009FEF0E94020468EE73E080E090E00E943E
:10116000F600CF5FC530C9F60E942F0568EE73E028
:1011700080E090E00E94F6008EEB91E00E94220554
:1011800010934B03C8E3DFEFCE010E94020464E634
:1011900070E080E090E00E94F6002796CC3EF3E0FD
:1011A000DF0791F70E942F0568EE73E080E090E082
:1011B0000E94F6008BEC91E00E94220500934B0305
:1011C000C8E3DFEFCE010E94020464E670E080E035
:1011D00090E00E94F6002796CC3E83E0D80791F776
:1011E0000E942F0568EE73E080E090E00E94F60018
:1011F000E114F10409F465CF0E949401882309F4F5
:1012000060CF0E9400005DCF991B79E004C0991F58
:10121000961708F0961B881F7A95C9F78095089550
:1012200097FB072E16F4009407D077FD09D00E9493
:10123000240907FC05D03EF4909581959F4F0895B1
:10124000709561957F4F0895AA1BBB1B51E107C0A4
:10125000AA1FBB1FA617B70710F0A61BB70B881F46
:10126000991F5A95A9F780959095BC01CD010895D5
:10127000EE0FFF1F0590F491E02D0994F894FFCF35
:10128000101010103F065B4F666D7D077F6F777CF7
:10129000395E79710040616300000000CA012A01D3
:1012A00057011702880166017A0100000000F0046E
:1012B000C3041F059904BC04A9049A040D0A004341
:1012C0003A5C55736572735C41646D696E697374E1
:1012D0007261746F725C446F776E6C6F6164735C83
:1012E000485431364B33332D302E342E315C6578F3
:1012F000616D706C65735C64656D6F5F646973705C
:101300006C6179496E745C64656D6F5F646973705C
:101310006C6179496E742E696E6F00485431364B9A
:1013200033335F4C49425F56455253494F4E3A2042
:1013300000494E54205445535420303A0900494E38
:1013400054205445535420313A0900494E542054F6
:0813500045535420323A090014
:00000001FF
