:100000000C9458000C9480000C9480000C94800098
:100010000C9480000C9480000C9480000C94800060
:100020000C9480000C9480000C9480000C94800050
:100030000C9480000C9480000C9480000C94800040
:100040000C9495070C9480000C9405080C94DF0721
:100050000C9480000C9480000C9480000C94800020
:100060000C9437080C948000000000002500280044
:100070002B00040404040404040402020202020229
:10008000030303030303010204081020408001025C
:1000900004081020010204081020000000080002DB
:1000A00001000003040700000000000000005609E2
:1000B00011241FBECFEFD8E0DEBFCDBF11E0A0E01E
:1000C000B1E0ECE1FDE102C005900D92A436B1076C
:1000D000D9F722E0A4E6B1E001C01D92A13FB2072A
:1000E000E1F710E0C8E5D0E004C02197FE010E94CE
:1000F000610DC735D107C9F70E94B3090C948C0E66
:100100000C9400000895089590E0FC01E656FF4F1E
:100110002491FC01EA57FF4F3491FC01EE58FF4F48
:10012000E491EE23C9F0222339F0233001F1A8F441
:10013000213019F1223029F1F0E0EE0FFF1FE859CC
:10014000FF4FA591B4918FB7F894EC91611126C03F
:1001500030953E233C938FBF08952730A9F0283077
:10016000C9F0243049F7809180008F7D03C08091D1
:1001700080008F7780938000DFCF84B58F7784BD38
:10018000DBCF84B58F7DFBCF8091B0008F778093DC
:10019000B000D2CF8091B0008F7DF9CF3E2BDACF67
:1001A0003FB7F8948091CF019091D001A091D101F7
:1001B000B091D20126B5A89B05C02F3F19F001963A
:1001C000A11DB11D3FBFBA2FA92F982F8827BC01B1
:1001D000CD01620F711D811D911D42E0660F771FD9
:1001E000881F991F4A95D1F708958F929F92AF92D9
:1001F000BF92CF92DF92EF92FF924B015C010E947F
:10020000D0006B017C010E94D0006C197D098E0921
:100210009F09683E734081059105A8F321E0821A89
:100220009108A108B10888EEC80E83E0D81EE11C31
:10023000F11C81149104A104B10429F7FF90EF90FF
:10024000DF90CF90BF90AF909F908F900895AF9226
:10025000BF92CF92DF92EF92FF920F931F93CF93B3
:10026000DF936C017B018B01040F151FEB015E0115
:10027000AE18BF08C017D10759F06991D601ED91AA
:10028000FC910190F081E02DC6010995892B79F749
:10029000C501DF91CF911F910F91FF90EF90DF90FB
:1002A000CF90BF90AF900895FC01538D448D252FC2
:1002B00030E0842F90E0821B930B541710F0CF9600
:1002C000089501970895FC01918D828D981761F032
:1002D000A28DAE0FBF2FB11D5D968C91928D9F5F49
:1002E0009F73928F90E008958FEF9FEF0895FC0128
:1002F000918D828D981731F0828DE80FF11D858DDB
:1003000090E008958FEF9FEF0895FC01918D228D6D
:10031000892F90E0805C9F4F821B91098F739927F2
:10032000089589E292E00E94850121E0892B09F479
:1003300020E0822F089580E090E0892B29F00E9430
:10034000910181110C9400000895FC01A48DA80F67
:10035000B92FB11DA35ABF4F2C91848D90E0019607
:100360008F739927848FA689B7892C93A089B18927
:100370008C91837080648C93938D848D981306C0C8
:100380000288F389E02D80818F7D80830895EF922C
:10039000FF920F931F93CF93DF93EC0181E0888F3F
:1003A0009B8D8C8D98131AC0E889F989808185FF0F
:1003B00015C09FB7F894EE89FF896083E889F989B1
:1003C00080818370806480839FBF81E090E0DF91B3
:1003D000CF911F910F91FF90EF900895F62E0B8D06
:1003E00010E00F5F1F4F0F731127E02E8C8D8E11C1
:1003F0000CC00FB607FCFACFE889F989808185FF28
:10040000F5CFCE010E94A501F1CFEB8DEC0FFD2FB2
:10041000F11DE35AFF4FF0829FB7F8940B8FEA89E2
:10042000FB8980818062CFCFCF93DF93EC01888DF1
:100430008823B9F0AA89BB89E889F9898C9185FD5F
:1004400003C0808186FD0DC00FB607FCF7CF8C91ED
:1004500085FFF2CF808185FFEDCFCE010E94A501FF
:10046000E9CFDF91CF91089520918501260F3327A1
:10047000331F21323105ECF42091FF01FC0190E0A3
:1004800080E0243069F082E00895A09185012191F7
:10049000AC014B595E4FA40FB52FB11D2C930196A3
:1004A000861798F380918501680F6093850180E03D
:1004B000089581E008951092FF0181E08093FE018C
:1004C0001092D90161E082E10E94840061E083E141
:1004D0000E948400E9EBF0E080818E7F8083808140
:1004E0008D7F808388E48093B80085E48093BC008E
:1004F0000895CF93DF9391E0909364018823B9F03E
:10050000C091B800D091BA008091BC008A7B8093E2
:10051000BC0060E082E10E94840060E083E10E9410
:1005200084000E945B02D093BA00C093B800DF91B0
:10053000CF9108958F929F92AF92BF92CF92DF9208
:10054000EF92FF920F931F93CF93DF93D0912802E6
:10055000D13208F0D7C0182FC09127020E94D000D6
:100560006B017C018091FF0181116BC082E080935F
:10057000FF011093FE018FEF8093FD011092FC01AB
:10058000D093FB01A7E0B2E0EBEDF1E080E0D813FF
:1005900091C01092DA018091DA01CC0FC82BC09380
:1005A000DA018091D901813009F088C01092D90117
:1005B0000E94D0006B017C018091DA018093BB0026
:1005C0008091010290910202A0910302B091040275
:1005D000892B8A2B8B2BA1F00E94D0000091010265
:1005E0001091020220910302309104026C197D09DE
:1005F0008E099F09061717072807390708F442C014
:100600008091BC0083FDD8CF85EC8093BC000E9414
:10061000D0006B017C018091FF01823009F450C051
:100620008091FD018F3F09F46FC08091FD01803200
:1006300009F46CC08091FD01803309F469C084E045
:1006400026C08091010290910202A0910302B09114
:100650000402892B8A2B8B2B09F484CF0E94D000B3
:100660008090010290900202A0900302B0900402D8
:100670006C197D098E099F0986169706A806B9068A
:1006800008F070CF809100020E94790285E01092FC
:1006900006021092280210920502DF91CF911F915D
:1006A0000F91FF90EF90DF90CF90BF90AF909F9011
:1006B0008F9008959D9191938F5F69CF85EEA5CF1F
:1006C0008091010290910202A0910302B091040274
:1006D000892B8A2B8B2B09F49ECF0E94D00000918E
:1006E00001021091020220910302309104026C1960
:1006F0007D098E099F09061717072807390708F093
:100700008ACFC0CF81E0C3CF80E0C1CF82E0BFCF2E
:1007100083E0BDCF1F93CF93DF93EA01122FDC015B
:1007200011968D919C91DC01ED91FC910280F381F9
:10073000E02D0995C817D90729F4812F0E949A0244
:1007400091E0811190E0892FDF91CF911F91089561
:10075000CF93DF93EC018B818823A1F0888191E016
:1007600090930502809327021092060210922802AD
:1007700081E00E949A0291E0811190E0892FDF913F
:10078000CF9108951092D8011092D70110920602CD
:10079000109228020E945B0282E890E09093D401BC
:1007A0008093D30183E890E09093D6018093D501A4
:1007B00081E08B83CE010E94A803982F8111CECFB8
:1007C000DDCF0895E091D8018091D701E81730F48A
:1007D000F0E0E855FE4F808190E008958FEF9FEFA5
:1007E00008959091D8018091D7012FEF3FEF98178E
:1007F00048F4E92FF0E0E855FE4F208130E09F5F9C
:100800009093D801C90108958091D7019091D801A2
:10081000891B990B0895CF92DF92EF92FF920F936D
:100820001F93CF93DF937C01CB018A0120910502B6
:10083000222389F0EB016B01C40ED51ECC15DD051A
:1008400069F06991D701ED91FC910190F081E02D63
:10085000C7010995F3CF642F0E943402C801DF91CC
:10086000CF911F910F91FF90EF90DF90CF9008955F
:10087000CF93DF931F92CDB7DEB769832091050236
:100880002223F9F020912802203258F021E030E0B4
:10089000FC013383228390E080E00F90DF91CF91C1
:1008A000089580910602E82FF0E0E95FFD4F9981FD
:1008B00090838F5F809306028093280281E090E00E
:1008C000ECCF61E0CE0101960E943402F7CF90E0B8
:1008D00080E00895FC0101900020E9F73197AF0115
:1008E000481B590BBC0189E292E00C9427018F92BE
:1008F0009F92AF92BF920F931F93CF93DF93CDB789
:10090000DEB7A1970FB6F894DEBF0FBECDBF19A218
:10091000423008F44AE08E010F5D1F4F842E912C67
:10092000B12CA12CA50194010E94F20AE62FB90175
:10093000CA01EA30F4F4E05DD801EE938D01232B77
:10094000242B252B79F790E080E0109719F0CD014A
:100950000E946A04A1960FB6F894DEBF0FBECDBF09
:10096000DF91CF911F910F91BF90AF909F908F908B
:100970000895E95CE1CFCF92DF92EF92FF92CF939F
:10098000DF936B017C016DE289E292E00E94C70176
:10099000EC0166277727CB016C197D098E099F0929
:1009A0004AE00E9477048C0F9D1FDF91CF91FF904A
:1009B000EF90DF90CF9008951F93CF93DF9300D0F7
:1009C00000D01F92CDB7DEB7660F660F6A5F6983EE
:1009D0001A821B824C835D83FC0183819481FC011C
:1009E0002481358125303105E0F0208111E010931C
:1009F000050220932702109206021092280221E09D
:100A000045E050E0BE016F5F7F4F0E948A0381275F
:100A10000F900F900F900F900F90DF91CF911F913B
:100A2000089581E0F5CFCF93DF9300D0CDB7DEB747
:100A300069834A83FC0183819481FC01248135818F
:100A40002230310590F0208131E03093050220936F
:100A50002702109206021092280221E042E050E0A4
:100A6000BE016F5F7F4F0E948A030F900F90DF914E
:100A7000CF9108952F923F924F925F926F927F9203
:100A80008F929F92AF92BF92CF92DF92EF92FF929E
:100A90000F931F93CF93DF9300D0CDB7DEB77C01C8
:100AA0004A015B0120E030E040E85FE3CB01B401A4
:100AB0000E94900B87FDEBC020E030EC4AE555E446
:100AC000C501B4010E94E80C18160CF4E7C0D70168
:100AD00015966D917D918D919C9118970E94360C81
:100AE0002B013C0120E030E040E855E4C501B401B1
:100AF0000E94ED0C9B01AC01C301B2010E94950B59
:100B000020E030E040E05FE30E94240B20E030E092
:100B100040E85FE30E94230B4B015C0120E030E0E2
:100B200040E450E40E94900B87FDC0C020E030E01C
:100B30004FE753E4C501B4010E94E80C18160CF409
:100B4000BBC0C501B4010E94070C362E1982F70103
:100B5000C380D480D60114968D919C911597892BD2
:100B600009F41BC18C9191E09093050280932702B8
:100B7000109206021092280220E041E050E0BE01EF
:100B80006F5F7F4FC6010E948A03882309F405C165
:100B900022242394F6018480958001E0811491043D
:100BA00009F400E0A02EB12CD601BC91BA830E94BA
:100BB000D0002B013C018091FF01811184C0102FD6
:100BC0002092FF010093FE01EFEFE093FD011092F0
:100BD000FC018FEF800F8093FB012092DA0190914E
:100BE000DA018A81880F892B8093DA018091D901FB
:100BF000813009F0A9C01092D9010E94D0002B01C8
:100C00003C018091DA018093BB00809101029091B8
:100C10000202A0910302B0910402892B8A2B8B2B34
:100C2000A1F00E94D0002091010230910202409177
:100C30000302509104026419750986099709261761
:100C400037074807590708F45FC08091BC0083FD4F
:100C5000D8CFF5ECF093BC000E94D0002B013C01F2
:100C60008091FF01813009F473C08091FC018017ED
:100C700010F41091FC01EBEDF1E0A8EAB1E080E0A6
:100C8000811709F446C091919D938F5FF9CF812C14
:100C9000912C30E8A32E3FE3B32E19CF812C20EC0A
:100CA000922E2AE5A22E25E4B22E11CF812C912C72
:100CB00090E4A92EBA2C45CF812C912C8FE7A82E39
:100CC00083E4B82E3ECF8091010290910202A09160
:100CD0000302B0910402892B8A2B8B2B09F46BCF72
:100CE0000E94D00020910102309102024091030243
:100CF0005091040264197509860997092617370768
:100D00004807590708F057CF809100020E947902E6
:100D100010E01092D8011093D7011A151B04E9F5C1
:100D200090E080E08A159B05A8F5D60111968D917B
:100D30009C91DC01ED91FC910284F385E02D0995F5
:100D4000898381E090E0EECF85EE8093BC0084CF74
:100D50008091010290910202A0910302B0910402DD
:100D6000892B8A2B8B2B09F47BCF0E94D0002091FA
:100D70000102309102024091030250910402641971
:100D8000750986099709261737074807590708F094
:100D900067CFBACF892809F4FDCE1981412F4F764C
:100DA000406160E0C7010E941305432D6EEFC7014B
:100DB0000E941305412F60E0C7010E94130565E002
:100DC00070E080E090E00E94F500412F406A60E012
:100DD000C7010E9413050F900F90DF91CF911F91D3
:100DE0000F91FF90EF90DF90CF90BF90AF909F90CA
:100DF0008F907F906F905F904F903F902F900895CD
:100E00000F931F93CF93DF93EC018B819C8100970D
:100E100011F00E94030E86E090E00E94670D8C01A5
:100E200089819A812881F8012083928381831382AA
:100E300080E290E0958384831C830B831092D80119
:100E40001092D70110920602109228020E945B02B3
:100E500082E890E09093D4018093D30183E890E0FE
:100E60009093D6018093D50181E0F8018383C80176
:100E70000E94A803182F8823D1F040E860E0CE013B
:100E80000E9413056AE070E080E090E00E94F500A7
:100E900080E498E7ADE7B1E08D839E83AF83B887A8
:100EA00040E050E06AE774E4CE010E943A05812FE9
:100EB000DF91CF911F910F91089585ED8093BC0034
:100EC0008091010290910202A0910302B09104026C
:100ED0000796A11DB11D23E0B695A7959795879517
:100EE0002A95D1F72091BC0024FD03C01092FF0188
:100EF00008954091010250910202609103027091A5
:100F00000402452B462B472B69F30097A105B10539
:100F100041F02AE22A95F1F700C00197A109B10931
:100F2000E1CF809100020C9479021F920F920FB6CC
:100F30000F9211242F933F938F939F93AF93BF935F
:100F40008091CB019091CC01A091CD01B091CE01C7
:100F50003091CA0123E0230F2D3758F50196A11DCA
:100F6000B11D2093CA018093CB019093CC01A09333
:100F7000CD01B093CE018091CF019091D001A0918D
:100F8000D101B091D2010196A11DB11D8093CF0175
:100F90009093D001A093D101B093D201BF91AF91B2
:100FA0009F918F913F912F910F900FBE0F901F90A7
:100FB000189526E8230F0296A11DB11DD2CF1F92CE
:100FC0000F920FB60F9211242F933F934F935F937D
:100FD0006F937F938F939F93AF93BF93EF93FF9301
:100FE00089E292E00E94A501FF91EF91BF91AF913C
:100FF0009F918F917F916F915F914F913F912F9131
:101000000F900FBE0F901F9018951F920F920FB662
:101010000F9211242F938F939F93EF93FF93E0915F
:101020003902F0913A028081E0913F02F091400252
:1010300082FD1BC09081809142028F5F8F7320914F
:101040004302821741F0E0914202F0E0E75DFD4F7C
:10105000958F80934202FF91EF919F918F912F91F5
:101060000F900FBE0F901F9018958081F4CF1F92A4
:101070000F920FB60F9211242F933F934F935F93CC
:101080006F937F938F939F93AF93BF93EF93FF9350
:101090008091B900887F803609F44AC0F0F5883223
:1010A00009F4A7C018F5803109F49BC0B8F488236F
:1010B00009F4F9C0883009F494C0FF91EF91BF9111
:1010C000AF919F918F917F916F915F914F913F91E0
:1010D0002F910F900FBE0F901F901895883109F433
:1010E00088C0803251F78093FD0114C0803409F428
:1010F0009DC040F48033B9F38833F9F68093FD0145
:1011000085ECB0C0803509F485C0883509F496C0F7
:10111000883499F60E945D07D0CF883909F48CC0D5
:1011200038F5883729F050F4883611F0803729F6E1
:1011300083E08093FF011092A70157C0883809F41B
:101140007BC0803919F0803809F0B7CF8091A701B2
:10115000803208F071C0E091A70181E08E0F80938A
:10116000A7018091BB00F0E0E957FE4F80833DC0AE
:10117000803B39F0E0F4803A09F479C0883A09F00C
:101180009CCF84E08093FF0110928601109285012C
:10119000E091D301F091D4010995809185018111ED
:1011A0000FC081E0809385011092650109C0803CE9
:1011B00009F4A6CF883C09F4A3CF883B09F07DCF82
:1011C000E091860181E08E0F80938601F0E0EB597B
:1011D000FE4F80818093BB009091860180918501B4
:1011E00029C08091DA018093BB0085EC8093BC001C
:1011F00064CF9091FC018091FB01981758F5E09124
:10120000FC0181E08E0F8093FC01F0E0E552FE4F7F
:101210008081E9CFE091FC0181E08E0F8093FC0199
:101220008091BB00F0E0E552FE4F80839091FC017D
:101230008091FB019817C8F285E8D8CFE091FC01B6
:1012400081E08E0F8093FC018091BB00F0E0E552BD
:10125000FE4F80838091FE0181115CCF81E08093FD
:10126000D90184EA8093BC001092FF0126CF85EC5F
:101270008093BC001092FF018091A701803230F46E
:10128000E091A701F0E0E957FE4F10826091A701BD
:1012900070E0E091D501F091D60187E891E00995E1
:1012A0001092A7010ACF1092FD0134CFE9E2F2E0DB
:1012B0001382128288EE93E0A0E0B0E084839583ED
:1012C000A683B7832AE031E03183208325EC30E028
:1012D0003587248724EC30E03787268720EC30E000
:1012E000318B208B21EC30E0338B228B22EC30E0F1
:1012F000358B248B26EC30E0378B268B118E128EAB
:10130000138E148EE6ECF2E01382128284839583AE
:10131000A683B7838CE191E091838083A4EEB2E051
:1013200081E48C931296FC93EE93119714961C9281
:101330001E921397ABEDB2E082E48C931296FC936D
:10134000EE93119714961C921E921397A2EDB2E0A1
:1013500083E48C931296FC93EE93119714961C924F
:101360001E9213970895789484B5826084BD84B5E5
:10137000816084BD85B5826085BD85B5816085BD90
:1013800080916E00816080936E0010928100809148
:1013900081008260809381008091810081608093D0
:1013A0008100809180008160809380008091B100F5
:1013B00084608093B1008091B00081608093B00020
:1013C00080917A00846080937A0080917A008260B4
:1013D00080937A0080917A00816080937A00809176
:1013E0007A00806880937A001092C100E0913902FF
:1013F000F0913A0282E08083E0913502F09136026A
:101400001082E0913702F09138028FEC80831092C5
:101410004102E0913D02F0913E0286E08083E0913E
:101420003B02F0913C02808180618083E0913B022D
:10143000F0913C02808188608083E0913B02F091D2
:101440003C02808180688083E0913B02F0913C0205
:1014500080818F7D808384EE92E00E94000740E0CF
:1014600050E068E472E484EE92E00E943A058BED6D
:1014700092E00E94000740E050E068E472E48BEDE7
:1014800092E00E943A0582ED92E00E94000740E05F
:1014900050E068E472E482ED92E00E943A058AE24C
:1014A00091E00E946A0486E491E00E946A04D0E41C
:1014B00088248A9483E0982EA12CB12C00E010E0BF
:1014C000D0937C0080917A00806480937A00809130
:1014D0007A00C82FC07486FDFACFA0917800B09131
:1014E0007900B093C901A093C8012DEC30E00E94AF
:1014F0005A0DA50194010E94D30A69017A018DEC6D
:10150000C80ED11CE11CF11CA6016C2F84EE92E0E8
:101510000E94DC04A6016C2F8BED92E00E94DC049B
:10152000A6016C2F82ED92E00E94DC04CF5FC031F7
:1015300059F789E491E00E946A046091C8017091B2
:10154000C901072E000C880B990B97FF22C00E943F
:10155000BB048AE591E00E946A04F7FE1EC0C70141
:10156000B6010E94BB0486E491E00E946A0462E333
:1015700070E080E090E00E94F5000115110509F48B
:101580009FCF0E949101882309F49ACF0E94000006
:1015900097CF4AE00E947704DCCF4AE0C701B6014A
:1015A0000E947704E0CF052E97FB1EF400940E9462
:1015B000EA0A57FD07D00E94F20A07FC03D04EF456
:1015C0000C94EA0A50954095309521953F4F4F4F26
:1015D0005F4F089590958095709561957F4F8F4FDF
:1015E0009F4F0895A1E21A2EAA1BBB1BFD010DC03F
:1015F000AA1FBB1FEE1FFF1FA217B307E407F507C3
:1016000020F0A21BB30BE40BF50B661F771F881F9E
:10161000991F1A9469F760957095809590959B0134
:10162000AC01BD01CF010895A29FB001B39FC001DD
:10163000A39F700D811D1124911DB29F700D811DFE
:101640001124911D08955058BB27AA270E943B0BD7
:101650000C94AE0C0E94A00C38F00E94A70C20F055
:1016600039F49F3F19F426F40C949D0C0EF4E09588
:10167000E7FB0C94970CE92F0E94BF0C58F3BA17A4
:10168000620773078407950720F079F4A6F50C9498
:10169000E10C0EF4E0950B2EBA2FA02D0B01B90131
:1016A00090010C01CA01A0011124FF27591B99F0D8
:1016B000593F50F4503E68F11A16F040A22F232FE4
:1016C000342F4427585FF3CF469537952795A79534
:1016D000F0405395C9F77EF41F16BA0B620B730BDB
:1016E000840BBAF09150A1F0FF0FBB1F661F771F4C
:1016F000881FC2F70EC0BA0F621F731F841F48F401
:10170000879577956795B795F7959E3F08F0B0CF89
:101710009395880F08F09927EE0F97958795089570
:101720000E94730C08F481E008950E94A90B0C94A8
:10173000AE0C0E94A70C58F00E94A00C40F029F4B7
:101740005F3F29F00C94970C51110C94E20C0C940F
:101750009D0C0E94BF0C68F39923B1F3552391F3BC
:10176000951B550BBB27AA2762177307840738F010
:101770009F5F5F4F220F331F441FAA1FA9F335D06D
:101780000E2E3AF0E0E832D091505040E695001C21
:10179000CAF72BD0FE2F29D0660F771F881FBB1FDB
:1017A000261737074807AB07B0E809F0BB0B802DB9
:1017B000BF01FF2793585F4F3AF09E3F510578F0E5
:1017C0000C94970C0C94E20C5F3FE4F3983ED4F336
:1017D000869577956795B795F7959F5FC9F7880FB9
:1017E000911D9695879597F90895E1E0660F771F0B
:1017F000881FBB1F621773078407BA0720F0621B9C
:10180000730B840BBA0BEE1F88F7E09508950E94C6
:10181000C70C88F09F5798F0B92F9927B751B0F0AF
:10182000E1F0660F771F881F991F1AF0BA95C9F764
:1018300014C0B13091F00E94E10CB1E008950C9415
:10184000E10C672F782F8827B85F39F0B93FCCF3C8
:10185000869577956795B395D9F73EF490958095E1
:10186000709561957F4F8F4F9F4F0895E89409C001
:1018700097FB3EF490958095709561957F4F8F4FC3
:101880009F4F9923A9F0F92F96E9BB279395F695D9
:10189000879577956795B795F111F8CFFAF4BB0F57
:1018A00011F460FF1BC06F5F7F4F8F4F9F4F16C0BB
:1018B000882311F096E911C0772321F09EE8872F45
:1018C000762F05C0662371F096E8862F70E060E001
:1018D0002AF09A95660F771F881FDAF7880F96957A
:1018E000879597F90895990F0008550FAA0BE0E81E
:1018F000FEEF16161706E807F907C0F012161306D2
:10190000E407F50798F0621B730B840B950B39F411
:101910000A2661F0232B242B252B21F408950A2677
:1019200009F4A140A6958FEF811D811D089597F9B7
:101930009F6780E870E060E008959FEF80EC089575
:1019400000240A941616170618060906089500249E
:101950000A9412161306140605060895092E039418
:10196000000C11F4882352F0BB0F40F4BF2B11F48C
:1019700060FF04C06F5F7F4F8F4F9F4F089557FDEB
:101980009058440F551F59F05F3F71F04795880FED
:1019900097FB991F61F09F3F79F087950895121684
:1019A00013061406551FF2CF4695F1DF08C0161630
:1019B00017061806991FF1CF8695710561050894E1
:1019C0000895E894BB2766277727CB0197F90895F8
:1019D0000E94730C08F48FEF08950E94000D0C9480
:1019E000AE0C0E94A00C38F00E94A70C20F09523AA
:1019F00011F00C94970C0C949D0C11240C94E20C97
:101A00000E94BF0C70F3959FC1F3950F50E0551FD6
:101A1000629FF001729FBB27F00DB11D639FAA2743
:101A2000F00DB11DAA1F649F6627B00DA11D661F92
:101A3000829F2227B00DA11D621F739FB00DA11DB3
:101A4000621F839FA00D611D221F749F3327A00D6D
:101A5000611D231F849F600D211D822F762F6A2F09
:101A600011249F5750409AF0F1F088234AF0EE0F6E
:101A7000FF1FBB1F661F771F881F91505040A9F79B
:101A80009E3F510580F00C94970C0C94E20C5F3F44
:101A9000E4F3983ED4F3869577956795B795F795D7
:101AA000E7959F5FC1F7FE2B880F911D969587954F
:101AB00097F908950E94140BB7FF0895821B930BAA
:101AC0000895EE0FFF1F0590F491E02D09940F93F8
:101AD0001F93CF93DF938230910510F482E090E062
:101AE000E091EF02F091F00230E020E0B0E0A0E001
:101AF000309799F42115310509F44AC0281B390B98
:101B000024303105D8F58A819B816115710589F1F1
:101B1000FB0193838283FE0111C0408151810281C8
:101B2000138148175907E0F04817590799F410979F
:101B300061F012960C93129713961C933296CF0174
:101B4000DF91CF911F910F9108950093EF021093B1
:101B5000F002F4CF2115310551F04217530738F048
:101B6000A901DB019A01BD01DF01F801C1CFEF013D
:101B7000F9CF9093F0028093EF02CDCFFE01E20FF8
:101B8000F31F819391932250310939832883D7CF52
:101B90002091ED023091EE02232B41F420910201BD
:101BA000309103013093EE022093ED022091000169
:101BB000309101012115310541F42DB73EB7409117
:101BC000040150910501241B350BE091ED02F091C9
:101BD000EE02E217F307A0F42E1B3F0B281739077C
:101BE00078F0AC014E5F5F4F2417350748F04E0F79
:101BF0005F1F5093EE024093ED02819391939FCF2C
:101C0000F0E0E0E09CCFCF93DF930097E9F0FC0198
:101C1000329713821282A091EF02B091F002ED018F
:101C200030E020E01097A1F420813181820F931FD2
:101C30002091ED023091EE022817390709F061C0BA
:101C4000F093EE02E093ED02DF91CF910895EA0167
:101C5000CE17DF07E8F54A815B819E0141155105EA
:101C6000B1F7E901FB83EA8349915991C40FD51F6C
:101C7000EC17FD0761F4808191810296840F951F16
:101C8000E90199838883828193819B838A83F0E031
:101C9000E0E012968D919C9113970097B9F52D91E4
:101CA0003C911197CD010296820F931F2091ED0276
:101CB0003091EE022817390739F6309751F5109216
:101CC000F0021092EF02B093EE02A093ED02BCCFAF
:101CD000D383C28340815181840F951FC817D907D0
:101CE00061F44E5F5F4F88819981480F591F51837E
:101CF00040838A819B81938382832115310509F07A
:101D0000B0CFF093F002E093EF029ECFFD01DC0133
:0C1D1000C0CF13821282D7CFF894FFCF0F
:101D1C000000F102800000000000C70127015401FF
:101D2C0014028501630177010000000038040B04E4
:101D3C006704E1030404F103E203496E696369611A
:101D4C006C697A61C3A7C3A36F20636F6E636C75F4
:101D5C00C3AD646121000D0A00506F74656E636938
:101D6C00C3B46D6574726F3A2000207C2050574DBF
:041D7C003A20000009
:00000001FF
