:100000000C9458000C9480000C9480000C94800098
:100010000C9480000C9480000C9480000C94800060
:100020000C9480000C9480000C9480000C94800050
:100030000C9480000C9480000C9480000C94800040
:100040000C94DA060C9480000C944A070C94240754
:100050000C9480000C9480000C9480000C94800020
:100060000C947C070C948000000000002500280000
:100070002B00040404040404040402020202020229
:10008000030303030303010204081020408001025C
:1000900004081020010204081020000000080002DB
:1000A00001000003040700000000000000009B089E
:1000B00011241FBECFEFD8E0DEBFCDBF11E0A0E01E
:1000C000B1E0E6E3FCE102C005900D92A637B1076E
:1000D000D9F722E0A6E7B1E001C01D92AF3EB2071A
:1000E000E1F710E0C8E5D0E004C02197FE010E94CE
:1000F000EE0CC735D107C9F70E94E0080C94190E21
:100100000C94000090E0FC01E656FF4F2491FC01A6
:10011000EA57FF4F3491FC01EE58FF4FE491EE2374
:10012000C9F0222339F0233001F1A8F4213019F16C
:10013000223029F1F0E0EE0FFF1FE859FF4FA591A3
:10014000B4918FB7F894EC91611126C030953E239D
:100150003C938FBF08952730A9F02830C9F0243090
:1001600049F7809180008F7D03C0809180008F7758
:1001700080938000DFCF84B58F7784BDDBCF84B5DB
:100180008F7DFBCF8091B0008F778093B000D2CF6E
:100190008091B0008F7DF9CF3E2BDACF3FB7F89436
:1001A0008091C3019091C401A091C501B091C60195
:1001B00026B5A89B05C02F3F19F00196A11DB11DC2
:1001C0003FBFBA2FA92F982F8827BC01CD01620FFE
:1001D000711D811D911D42E0660F771F881F991FB9
:1001E0004A95D1F708958F929F92AF92BF92CF9286
:1001F000DF92EF92FF924B015C010E94CE006B01F7
:100200007C010E94CE006C197D098E099F09683E11
:10021000734081059105A8F321E0821A9108A10895
:10022000B10888EEC80E83E0D81EE11CF11C8114D1
:100230009104A104B10429F7FF90EF90DF90CF90D3
:10024000BF90AF909F908F90089508950895AF92BA
:10025000BF92CF92DF92EF92FF920F931F93CF93B3
:10026000DF936C017B018B01040F151FEB015E0115
:10027000AE18BF08C017D10759F06991D601ED91AA
:10028000FC910190F081E02DC6010995892B79F749
:10029000C501DF91CF911F910F91FF90EF90DF90FB
:1002A000CF90BF90AF900895FC01538D448D252FC2
:1002B00030E0842F90E0821B930B541710F0CF9600
:1002C000089501970895FC01918D828D981761F032
:1002D000A28DAE0FBF2FB11D5D968C91928D9F5F49
:1002E0009F73928F90E008958FEF9FEF0895FC0128
:1002F000918D828D981731F0828DE80FF11D858DDB
:1003000090E008958FEF9FEF0895FC01918D228D6D
:10031000892F90E0805C9F4F821B91098F739927F2
:10032000089589E392E00E94850121E0892B09F478
:1003300020E0822F089580E090E0892B29F00E9430
:10034000910181110C9400000895FC01A48DA80F67
:10035000B92FB11DA35ABF4F2C91848D90E0019607
:100360008F739927848FA689B7892C93A089B18927
:100370008C91837080648C93938D848D981306C0C8
:100380000288F389E02D80818F7D80830895EF922C
:10039000FF920F931F93CF93DF93EC0181E0888F3F
:1003A0009B8D8C8D98131AC0E889F989808185FF0F
:1003B00015C09FB7F894EE89FF896083E889F989B1
:1003C00080818370806480839FBF81E090E0DF91B3
:1003D000CF911F910F91FF90EF900895F62E0B8D06
:1003E00010E00F5F1F4F0F731127E02E8C8D8E11C1
:1003F0000CC00FB607FCFACFE889F989808185FF28
:10040000F5CFCE010E94A501F1CFEB8DEC0FFD2FB2
:10041000F11DE35AFF4FF0829FB7F8940B8FEA89E2
:10042000FB8980818062CFCFCF93DF93EC01888DF1
:100430008823B9F0AA89BB89E889F9898C9185FD5F
:1004400003C0808186FD0DC00FB607FCF7CF8C91ED
:1004500085FFF2CF808185FFEDCFCE010E94A501FF
:10046000E9CFDF91CF91089520919701260F33278F
:10047000331F21323105ECF420910F02FC0190E092
:1004800080E0243069F082E00895A09197012191E5
:10049000AC0149585E4FA40FB52FB11D2C930196A6
:1004A000861798F380919701680F6093970180E019
:1004B000089581E0089510920F0281E080930E026A
:1004C0001092E90161E082E10E94820061E083E133
:1004D0000E948200E9EBF0E080818E7F8083808142
:1004E0008D7F808388E48093B80085E48093BC008E
:1004F0000895CF93DF9391E0909376018823B9F02C
:10050000C091B800D091BA008091BC008A7B8093E2
:10051000BC0060E082E10E94820060E083E10E9412
:1005200082000E945B02D093BA00C093B800DF91B2
:10053000CF9108958F929F92AF92BF92CF92DF9208
:10054000EF92FF920F931F93CF93DF93D0913802D6
:10055000D13208F0D7C0182FC09137020E94CE00C8
:100560006B017C0180910F0281116BC082E080934E
:100570000F0210930E028FEF80930D0210920C0267
:10058000D0930B02A7E1B2E0EBEEF1E080E0D813EC
:1005900091C01092EA018091EA01CC0FC82BC09360
:1005A000EA018091E901813009F088C01092E901E7
:1005B0000E94CE006B017C018091EA018093BB0018
:1005C0008091110290911202A0911302B091140235
:1005D000892B8A2B8B2BA1F00E94CE000091110257
:1005E0001091120220911302309114026C197D09AE
:1005F0008E099F09061717072807390708F442C014
:100600008091BC0083FDD8CF85EC8093BC000E9414
:10061000CE006B017C0180910F02823009F450C042
:1006200080910D028F3F09F46FC080910D028032DE
:1006300009F46CC080910D02803309F469C084E034
:1006400026C08091110290911202A0911302B091E4
:100650001402892B8A2B8B2B09F484CF0E94CE00A5
:100660008090110290901202A0901302B090140298
:100670006C197D098E099F0986169706A806B9068A
:1006800008F070CF809110020E94790285E01092EC
:1006900016021092380210921502DF91CF911F912D
:1006A0000F91FF90EF90DF90CF90BF90AF909F9011
:1006B0008F9008959D9191938F5F69CF85EEA5CF1F
:1006C0008091110290911202A0911302B091140234
:1006D000892B8A2B8B2B09F49ECF0E94CE00009190
:1006E00011021091120220911302309114026C1920
:1006F0007D098E099F09061717072807390708F093
:100700008ACFC0CF81E0C3CF80E0C1CF82E0BFCF2E
:1007100083E0BDCF1F93CF93DF93EA01122FDC015B
:1007200011968D919C91DC01ED91FC910280F381F9
:10073000E02D0995C817D90729F4812F0E949A0244
:1007400091E0811190E0892FDF91CF911F91089561
:10075000CF93DF93EC018B818823A1F0888191E016
:10076000909315028093370210921602109238026D
:1007700081E00E949A0291E0811190E0892FDF913F
:10078000CF9108951092C8011092C70110921602DD
:10079000109238020E945B0285E291E09093BB01C7
:1007A0008093BA0186E291E09093BD018093BC01F1
:1007B00081E08B83CE010E94A803982F8111CECFB8
:1007C000DDCF0895E091C8018091C701E81730F4AA
:1007D000F0E0E753FE4F808190E008958FEF9FEFA8
:1007E00008959091C8018091C7012FEF3FEF9817AE
:1007F00048F4E92FF0E0E753FE4F208130E09F5F9F
:100800009093C801C90108958091C7019091C801D2
:10081000891B990B0895CF92DF92EF92FF920F936D
:100820001F93CF93DF937C01CB018A0120911502A6
:10083000222389F0EB016B01C40ED51ECC15DD051A
:1008400069F06991D701ED91FC910190F081E02D63
:10085000C7010995F3CF642F0E943402C801DF91CC
:10086000CF911F910F91FF90EF90DF90CF9008955F
:10087000CF93DF931F92CDB7DEB769832091150226
:100880002223F9F020913802203258F021E030E0A4
:10089000FC013383228390E080E00F90DF91CF91C1
:1008A000089580911602E82FF0E0E95EFD4F9981EE
:1008B00090838F5F809316028093380281E090E0EE
:1008C000ECCF61E0CE0101960E943402F7CF90E0B8
:1008D00080E00895FC0101900020E9F73197AF0115
:1008E000481B590BBC0189E392E00C9427018F92BD
:1008F0009F92AF92BF920F931F93CF93DF93CDB789
:10090000DEB7A1970FB6F894DEBF0FBECDBF19A218
:10091000423008F44AE08E010F5D1F4F842E912C67
:10092000B12CA12CA50194010E947F0AE62FB901E8
:10093000CA01EA30F4F4E05DD801EE938D01232B77
:10094000242B252B79F790E080E0109719F0CD014A
:100950000E946A04A1960FB6F894DEBF0FBECDBF09
:10096000DF91CF911F910F91BF90AF909F908F908B
:100970000895E95CE1CFCF93DF9300D0CDB7DEB728
:1009800089836A838091E5029091E602FC012481CB
:1009900035812230310590F0208131E0309315020D
:1009A00020933702109216021092380221E042E0A2
:1009B00050E0BE016F5F7F4F0E948A030F900F903F
:1009C000DF91CF9108952F923F924F925F926F9255
:1009D0007F928F929F92AF92BF92CF92DF92EF92CF
:1009E000FF920F931F93CF93DF931F92CDB7DEB784
:1009F0006B017C0120E030E040E85FE30E941D0BCA
:100A000087FDECC020E030EC4AE555E4C701B601B3
:100A10000E94750C18160CF4E8C06091E702709102
:100A2000E8028091E9029091EA020E94C30B4B0117
:100A30005C0120E030E040E855E4C701B6010E94C7
:100A40007A0C9B01AC01C501B4010E94220B20E08D
:100A500030E040E05FE30E94B10A20E030E040E88F
:100A60005FE30E94B00A6B017C0120E030E040E4CB
:100A700050E40E941D0B87FDC0C020E030E04FE72E
:100A800053E4C701B6010E94750C18160CF4BBC0E4
:100A9000C701B6010E94940B962E1982E090E502E0
:100AA000F090E602D70114968D919C911597892BB1
:100AB00009F41AC18C9191E090931502809337024A
:100AC000109216021092380220E041E050E0BE0180
:100AD0006F5F7F4FC7010E948A03882309F404C116
:100AE0008824839485EC382EF701C480D58001E0FA
:100AF000C114D10409F400E0A02EB12CD7012C9030
:100B00000E94CE002B013C0180910F02811182C016
:100B1000102F80920F0200930E02BFEFB0930D02D0
:100B200010920C028FEF800F80930B028092EA01EB
:100B30008091EA01220C282A2092EA018091E901A1
:100B4000813009F0A8C01092E9010E94CE002B016B
:100B50003C018091EA018093BB0080911102909149
:100B60001202A0911302B0911402892B8A2B8B2BB5
:100B7000A1F00E94CE00209111023091120240910A
:100B800013025091140264197509860997092617F2
:100B900037074807590708F45EC08091BC0083FD01
:100BA000D8CF3092BC000E94CE002B013C01809136
:100BB0000F02813009F473C080910C02801710F489
:100BC00010910C02EBEEF1E0A9ECB1E080E08117AE
:100BD00009F446C091919D938F5FF9CFC12CD12C20
:100BE00040E8E42E4FE3F42E18CFC12C30ECD32E86
:100BF0003AE5E32E35E4F32E10CFC12CD12C20E4BE
:100C0000E22EFE2C45CFC12CD12C9FE7E92E93E498
:100C1000F92E3ECF8091110290911202A091130201
:100C2000B0911402892B8A2B8B2B09F46DCF0E9473
:100C3000CE00209111023091120240911302509186
:100C4000140264197509860997092617370748079A
:100C5000590708F059CF809110020E94790210E0E4
:100C60001092C8011093C7011A151B04E9F590E012
:100C700080E08A159B05A8F5D70111968D919C916E
:100C8000DC01ED91FC910284F385E02D09958983C7
:100C900081E090E0EECFE5EEE093BC0084CF809160
:100CA000110290911202A0911302B0911402892BAB
:100CB0008A2B8B2B09F47BCF0E94CE00209111024E
:100CC0003091120240911302509114026419750977
:100CD00086099709261737074807590708F067CF8D
:100CE000BACFCD2809F400CF1981612F6F766061EA
:100CF00080E00E94BB04692D8EEF0E94BB04612F2F
:100D000080E00E94BB0465E070E080E090E00E941B
:100D1000F300612F606A80E00E94BB040F90DF91B6
:100D2000CF911F910F91FF90EF90DF90CF90BF90E8
:100D3000AF909F908F907F906F905F904F903F907B
:100D40002F90089585ED8093BC00809111029091C1
:100D50001202A0911302B09114020796A11DB11DB9
:100D600023E0B695A795979587952A95D1F7209179
:100D7000BC0024FD03C010920F020895409111029F
:100D8000509112026091130270911402452B462B70
:100D9000472B69F30097A105B10541F02AE22A9596
:100DA000F1F700C00197A109B109E1CF80911002CC
:100DB0000C9479021F920F920FB60F9211242F9369
:100DC0003F938F939F93AF93BF938091BF01909177
:100DD000C001A091C101B091C2013091BE0123E0D8
:100DE000230F2D3758F50196A11DB11D2093BE018B
:100DF0008093BF019093C001A093C101B093C20141
:100E00008091C3019091C401A091C501B091C60128
:100E10000196A11DB11D8093C3019093C401A093BD
:100E2000C501B093C601BF91AF919F918F913F9142
:100E30002F910F900FBE0F901F90189526E8230F4B
:100E40000296A11DB11DD2CF1F920F920FB60F9225
:100E500011242F933F934F935F936F937F938F93BF
:100E60009F93AF93BF93EF93FF9389E392E00E9428
:100E7000A501FF91EF91BF91AF919F918F917F91CC
:100E80006F915F914F913F912F910F900FBE0F90F7
:100E90001F9018951F920F920FB60F9211242F9347
:100EA0008F939F93EF93FF93E0914902F0914A0251
:100EB0008081E0914F02F091500282FD1BC0908131
:100EC000809152028F5F8F7320915302821741F0FD
:100ED000E0915202F0E0E75CFD4F958F8093520263
:100EE000FF91EF919F918F912F910F900FBE0F90D7
:100EF0001F9018958081F4CF1F920F920FB60F921A
:100F000011242F933F934F935F936F937F938F930E
:100F10009F93AF93BF93EF93FF938091B900887F26
:100F2000803609F44AC0F0F5883209F4A7C018F5F4
:100F3000803109F49BC0B8F4882309F4F9C08830E3
:100F400009F494C0FF91EF91BF91AF919F918F9160
:100F50007F916F915F914F913F912F910F900FBEB5
:100F60000F901F901895883109F488C0803251F78E
:100F700080930D0214C0803409F49DC040F4803386
:100F8000B9F38833F9F680930D0285ECB0C0803553
:100F900009F485C0883509F496C0883499F60E9412
:100FA000A206D0CF883909F48CC038F5883729F0EB
:100FB00050F4883611F0803729F683E080930F02D1
:100FC0001092B90157C0883809F47BC0803919F0F4
:100FD000803809F0B7CF8091B901803208F071C034
:100FE000E091B90181E08E0F8093B9018091BB003F
:100FF000F0E0E756FE4F80833DC0803B39F0E0F4DF
:10100000803A09F479C0883A09F09CCF84E0809353
:101010000F021092980110929701E091BA01F0919D
:10102000BB0109958091970181110FC081E08093E8
:1010300097011092770109C0803C09F4A6CF883C43
:1010400009F4A3CF883B09F07DCFE091980181E0BE
:101050008E0F80939801F0E0E958FE4F80818093D5
:10106000BB00909198018091970129C08091EA017D
:101070008093BB0085EC8093BC0064CF90910C0200
:1010800080910B02981758F5E0910C0281E08E0FC9
:1010900080930C02F0E0E551FE4F8081E9CFE091B2
:1010A0000C0281E08E0F80930C028091BB00F0E077
:1010B000E551FE4F808390910C0280910B029817AE
:1010C000C8F285E8D8CFE0910C0281E08E0F8093C2
:1010D0000C028091BB00F0E0E551FE4F80838091CF
:1010E0000E0281115CCF81E08093E90184EA809354
:1010F000BC0010920F0226CF85EC8093BC001092AA
:101100000F028091B901803230F4E091B901F0E032
:10111000E756FE4F10826091B90170E0E091BC018A
:10112000F091BD0189E991E009951092B9010ACFCA
:1011300010920D0234CFE9E3F2E01382128288EEBE
:1011400093E0A0E0B0E084839583A683B7832AE090
:1011500031E03183208325EC30E03587248724EC8F
:1011600030E03787268720EC30E0318B208B21EC74
:1011700030E0338B228B22EC30E0358B248B26EC55
:1011800030E0378B268B118E128E138E148EE6ED87
:10119000F2E01382128284839583A683B7838CE165
:1011A00091E091838083A2EEB2E080E48C9312966A
:1011B000FC93EE93119714961C921E921397089528
:1011C000CF93DF9300D000D01F92CDB7DEB77894D5
:1011D00084B5826084BD84B5816084BD85B582603C
:1011E00085BD85B5816085BD80916E0081608093ED
:1011F0006E00109281008091810082608093810056
:101200008091810081608093810080918000816065
:10121000809380008091B10084608093B1008091C0
:10122000B00081608093B00080917A0084608093E8
:101230007A0080917A00826080937A0080917A00AF
:10124000816080937A0080917A00806880937A0030
:101250001092C100E0914902F0914A0282E080833D
:10126000E0914502F09146021082E0914702F09130
:1012700048028FEC808310925102E0914D02F09170
:101280004E0286E08083E0914B02F0914C02808117
:1012900080618083E0914B02F0914C0280818860F4
:1012A0008083E0914B02F0914C02808180688083C2
:1012B000E0914B02F0914C0280818F7D8083809180
:1012C000E5029091E602009711F00E94900D86E0F1
:1012D00090E00E94F40C8C018091E3029091E40272
:1012E0002091E202F801208392838183138280E2BD
:1012F00090E0958384831093E6020093E5021092B8
:10130000C8011092C70110921602109238020E9472
:101310005B0285E291E09093BB018093BA0186E283
:1013200091E09093BD018093BC0181E0F80183833B
:10133000C8010E94A8038823E1F060E880E00E94D1
:10134000BB046AE070E080E090E00E94F30080E47B
:1013500098E7ADE7B1E08093E7029093E802A093AD
:10136000E902B093EA0260E070E08AE794E40E9448
:10137000E30460E070E088E492E40E94E3048AE21F
:1013800091E00E946A048AE491E00E946A0480E08D
:10139000282E80E0382EF2E4F0937C0080917A00D1
:1013A000806480937A0080917A0086FDFCCFA091C2
:1013B0007800B09179006D010B2E000CEE08FF084B
:1013C0002DEC30E00E94E70C2FEF33E040E050E0DE
:1013D0000E94600A29013A015A0149013DEC830E3D
:1013E000911CA11CB11C092D16E019831A821B82C5
:1013F0008C820D838091E5029091E602FC012481AC
:1014000035812530310590F02081F1E0F09315020F
:1014100020933702109216021092380221E045E024
:1014200050E0BE016F5F7F4F0E948A031C5F16343D
:10143000E1F68DE491E00E946A044AE0C701B6013A
:10144000F7FE0DC06DE289E392E00E94C7016627B6
:101450007727CB016C197D098E099F094AE00E940C
:10146000770487E691E00E946A044AE0C501B4016E
:10147000B7FE0EC06DE289E392E00E94C70163E30C
:101480007FEF8FEF9FEF64197509860997094AE08E
:101490000E9477048AE491E00E946A0464E170E0AB
:1014A00080E090E00E94F3002114310409F473CF2E
:1014B0000E949101882309F46ECF0E9400006BCF37
:1014C000052E97FB1EF400940E94770A57FD07D063
:1014D0000E947F0A07FC03D04EF40C94770A5095C3
:1014E0004095309521953F4F4F4F5F4F0895909510
:1014F0008095709561957F4F8F4F9F4F0895A1E222
:101500001A2EAA1BBB1BFD010DC0AA1FBB1FEE1F7D
:10151000FF1FA217B307E407F50720F0A21BB30BC8
:10152000E40BF50B661F771F881F991F1A9469F744
:1015300060957095809590959B01AC01BD01CF01A0
:101540000895A29FB001B39FC001A39F700D811D9C
:101550001124911DB29F700D811D1124911D0895BC
:101560005058BB27AA270E94C80A0C943B0C0E9423
:101570002D0C38F00E94340C20F039F49F3F19F400
:1015800026F40C942A0C0EF4E095E7FB0C94240C42
:10159000E92F0E944C0C58F3BA17620773078407AF
:1015A000950720F079F4A6F50C946E0C0EF4E095F6
:1015B0000B2EBA2FA02D0B01B90190010C01CA010D
:1015C000A0011124FF27591B99F0593F50F4503EB8
:1015D00068F11A16F040A22F232F342F4427585FAA
:1015E000F3CF469537952795A795F0405395C9F7C2
:1015F0007EF41F16BA0B620B730B840BBAF091507A
:10160000A1F0FF0FBB1F661F771F881FC2F70EC018
:10161000BA0F621F731F841F48F4879577956795EB
:10162000B795F7959E3F08F0B0CF9395880F08F0D7
:101630009927EE0F9795879508950E94000C08F45E
:1016400081E008950E94360B0C943B0C0E94340CF0
:1016500058F00E942D0C40F029F45F3F29F00C94C3
:10166000240C51110C946F0C0C942A0C0E944C0CFD
:1016700068F39923B1F3552391F3951B550BBB27C1
:10168000AA2762177307840738F09F5F5F4F220F06
:10169000331F441FAA1FA9F335D00E2E3AF0E0E8FD
:1016A00032D091505040E695001CCAF72BD0FE2F47
:1016B00029D0660F771F881FBB1F261737074807DB
:1016C000AB07B0E809F0BB0B802DBF01FF27935893
:1016D0005F4F3AF09E3F510578F00C94240C0C9427
:1016E0006F0C5F3FE4F3983ED4F38695779567954A
:1016F000B795F7959F5FC9F7880F911D96958795C8
:1017000097F90895E1E0660F771F881FBB1F6217E6
:1017100073078407BA0720F0621B730B840BBA0BA4
:10172000EE1F88F7E09508950E94540C88F09F57AB
:1017300098F0B92F9927B751B0F0E1F0660F771FF5
:10174000881F991F1AF0BA95C9F714C0B13091F0EB
:101750000E946E0CB1E008950C946E0C672F782FE8
:101760008827B85F39F0B93FCCF3869577956795B0
:10177000B395D9F73EF490958095709561957F4F1C
:101780008F4F9F4F0895E89409C097FB3EF49095C2
:101790008095709561957F4F8F4F9F4F9923A9F04A
:1017A000F92F96E9BB279395F695879577956795D9
:1017B000B795F111F8CFFAF4BB0F11F460FF1BC01D
:1017C0006F5F7F4F8F4F9F4F16C0882311F096E9B0
:1017D00011C0772321F09EE8872F762F05C066235E
:1017E00071F096E8862F70E060E02AF09A95660F17
:1017F000771F881FDAF7880F9695879597F90895D0
:10180000990F0008550FAA0BE0E8FEEF1616170611
:10181000E807F907C0F012161306E407F50798F079
:10182000621B730B840B950B39F40A2661F0232B92
:10183000242B252B21F408950A2609F4A140A6950E
:101840008FEF811D811D089597F99F6780E870E0F3
:1018500060E008959FEF80EC089500240A94161626
:10186000170618060906089500240A94121613068E
:10187000140605060895092E0394000C11F488231C
:1018800052F0BB0F40F4BF2B11F460FF04C06F5F38
:101890007F4F8F4F9F4F089557FD9058440F551F0E
:1018A00059F05F3F71F04795880F97FB991F61F0E2
:1018B0009F3F79F087950895121613061406551F59
:1018C000F2CF4695F1DF08C0161617061806991FC5
:1018D000F1CF86957105610508940895E894BB27BA
:1018E00066277727CB0197F908950E94000C08F42A
:1018F0008FEF08950E948D0C0C943B0C0E942D0CD0
:1019000038F00E94340C20F0952311F00C94240C34
:101910000C942A0C11240C946F0C0E944C0C70F344
:10192000959FC1F3950F50E0551F629FF001729F84
:10193000BB27F00DB11D639FAA27F00DB11DAA1F93
:10194000649F6627B00DA11D661F829F2227B00DE0
:10195000A11D621F739FB00DA11D621F839FA00D6B
:10196000611D221F749F3327A00D611D231F849FBB
:10197000600D211D822F762F6A2F11249F57504012
:101980009AF0F1F088234AF0EE0FFF1FBB1F661F8D
:10199000771F881F91505040A9F79E3F510580F056
:1019A0000C94240C0C946F0C5F3FE4F3983ED4F33A
:1019B000869577956795B795F795E7959F5FC1F7FA
:1019C000FE2B880F911D9695879597F908950E9493
:1019D000A10AB7FF0895821B930B0895EE0FFF1F16
:1019E0000590F491E02D09940F931F93CF93DF930B
:1019F0008230910510F482E090E0E091ED02F091E8
:101A0000EE0230E020E0B0E0A0E0309799F421153C
:101A1000310509F44AC0281B390B24303105D8F5AB
:101A20008A819B816115710589F1FB019383828312
:101A3000FE0111C04081518102811381481759076D
:101A4000E0F04817590799F4109761F012960C933B
:101A5000129713961C933296CF01DF91CF911F916D
:101A60000F9108950093ED021093EE02F4CF21152B
:101A7000310551F04217530738F0A901DB019A01F3
:101A8000BD01DF01F801C1CFEF01F9CF9093EE0264
:101A90008093ED02CDCFFE01E20FF31F819391936E
:101AA0002250310939832883D7CF2091EB0230911E
:101AB000EC02232B41F42091020130910301309379
:101AC000EC022093EB0220910001309101012115DD
:101AD000310541F42DB73EB7409104015091050105
:101AE000241B350BE091EB02F091EC02E217F307B7
:101AF000A0F42E1B3F0B2817390778F0AC014E5F7E
:101B00005F4F2417350748F04E0F5F1F5093EC02CC
:101B10004093EB02819391939FCFF0E0E0E09CCF64
:101B2000CF93DF930097E9F0FC0132971382128282
:101B3000A091ED02B091EE02ED0130E020E01097AF
:101B4000A1F420813181820F931F2091EB0230910B
:101B5000EC022817390709F061C0F093EC02E0931A
:101B6000EB02DF91CF910895EA01CE17DF07E8F588
:101B70004A815B819E0141155105B1F7E901FB8363
:101B8000EA8349915991C40FD51FEC17FD0761F401
:101B9000808191810296840F951FE9019983888342
:101BA000828193819B838A83F0E0E0E012968D919D
:101BB0009C9113970097B9F52D913C911197CD0108
:101BC0000296820F931F2091EB023091EC022817AE
:101BD000390739F6309751F51092EE021092ED0266
:101BE000B093EC02A093EB02BCCFD383C2834081BD
:101BF0005181840F951FC817D90761F44E5F5F4F5D
:101C000088819981480F591F518340838A819B8124
:101C1000938382832115310509F0B0CFF093EE0252
:101C2000E093ED029ECFFD01DC01C0CF1382128252
:061C3000D7CFF894FFCFAE
:101C36000000EF02800000000000C70127015401E8
:101C460014028501630177010000000038040B04CB
:101C56006704E1030404F103E203436F6E74726FD9
:101C66006C652042727573686C65737320636F6D63
:101C7600205043413936383521000D0A0056616C33
:101C86006F7220646F20506F74656E6369C3B46DA4
:101C96006574726F3A2000207C2056616C6F72204A
:061CA60050574D3A2000EA
:00000001FF
