:100000000C945B000C9483000C9483000C9483008C
:100010000C9483000C9483000C9483000C94830054
:100020000C9483000C9483000C9483000C94830044
:100030000C9483000C9483000C9483000C94830034
:100040000C9425050C9483000C9495050C946F0575
:100050000C9483000C9483000C9483000C94830014
:100060000C94C7050C948300302E342E3100000010
:100070000000250028002B000404040404040404E8
:100080000202020202020303030303030102040843
:1000900010204080010204081020010204081020F2
:1000A0000000000800020100000304070000000037
:1000B00000000000E60611241FBECFEFD8E0DEBF2F
:1000C000CDBF11E0A0E0B1E0E6EAF1E102C00590A9
:1000D0000D92A43BB107D9F723E0A4EBB1E001C036
:1000E0001D92AC33B207E1F710E0CBE5D0E004C0DD
:1000F0002197FE010E94CB08CA35D107C9F70E949B
:100100003C070C94D1080C94000090E0FC01E056F0
:10011000FF4F2491FC01E457FF4F3491FC01E85854
:10012000FF4FE491EE23C9F0222339F0233001F18F
:10013000A8F4213019F1223029F1F0E0EE0FFF1F71
:10014000E259FF4FA591B4918FB7F894EC916111EA
:1001500026C030953E233C938FBF08952730A9F0E9
:100160002830C9F0243049F7809180008F7D03C08A
:10017000809180008F7780938000DFCF84B58F7768
:1001800084BDDBCF84B58F7DFBCF8091B0008F77AE
:100190008093B000D2CF8091B0008F7DF9CF3E2BFD
:1001A000DACF3FB7F8948091270290912802A0916E
:1001B0002902B0912A0226B5A89B05C02F3F19F04D
:1001C0000196A11DB11D3FBFBA2FA92F982F8827D7
:1001D000BC01CD01620F711D811D911D42E0660FB2
:1001E000771F881F991F4A95D1F70895089508959C
:1001F000AF92BF92CF92DF92EF92FF920F931F9335
:10020000CF93DF936C017B018B01040F151FEB0172
:100210005E01AE18BF08C017D10759F06991D60129
:10022000ED91FC910190F081E02DC6010995892B9B
:1002300079F7C501DF91CF911F910F91FF90EF905A
:10024000DF90CF90BF90AF900895FC01538D448D07
:10025000252F30E0842F90E0821B930B541710F071
:10026000CF96089501970895FC01918D828D98177E
:1002700061F0A28DAE0FBF2FB11D5D968C91928D56
:100280009F5F9F73928F90E008958FEF9FEF089587
:10029000FC01918D828D981731F0828DE80FF11D50
:1002A000858D90E008958FEF9FEF0895FC01918D6B
:1002B000228D892F90E0805C9F4F821B91098F7364
:1002C000992708958BE792E00E94560121E0892B3F
:1002D00009F420E0822F089580E090E0892B29F036
:1002E0000E94620181110C9400000895FC01A48D0C
:1002F000A80FB92FB11DA35ABF4F2C91848D90E048
:1003000001968F739927848FA689B7892C93A0892A
:10031000B1898C91837080648C93938D848D9813B4
:1003200006C00288F389E02D80818F7D8083089547
:10033000EF92FF920F931F93CF93DF93EC0181E035
:10034000888F9B8D8C8D98131AC0E889F9898081DC
:1003500085FF15C09FB7F894EE89FF896083E8890F
:10036000F98980818370806480839FBF81E090E001
:10037000DF91CF911F910F91FF90EF900895F62E8E
:100380000B8D10E00F5F1F4F0F731127E02E8C8D28
:100390008E110CC00FB607FCFACFE889F98980816D
:1003A00085FFF5CFCE010E947601F1CFEB8DEC0FEA
:1003B000FD2FF11DE35AFF4FF0829FB7F8940B8F8A
:1003C000EA89FB8980818062CFCFCF93DF93EC01F4
:1003D000888D8823B9F0AA89BB89E889F9898C912D
:1003E00085FD03C0808186FD0DC00FB607FCF7CFE9
:1003F0008C9185FFF2CF808185FFEDCFCE010E94E9
:100400007601E9CFDF91CF9108952091F501260F74
:100410003327331F21323105ECF420915102FC01C6
:1004200090E080E0243069F082E00895A091F50129
:100430002191AC014B525E4FA40FB52FB11D2C93EF
:100440000196861798F38091F501680F6093F50186
:1004500080E0089581E008951092510281E0809338
:10046000500210922B0261E082E10E94850061E05F
:1004700083E10E948500E9EBF0E080818E7F80833C
:1004800080818D7F808388E48093B80085E48093A9
:10049000BC000895CF93DF9391E09093D40188231B
:1004A000B9F0C091B800D091BA008091BC008A7BAD
:1004B0008093BC0060E082E10E94850060E083E1FF
:1004C0000E9485000E942C02D093BA00C093B8000D
:1004D000DF91CF910895CF92DF92EF92FF920F9329
:1004E0001F93CF93DF93D0917A0281E0D13208F04D
:1004F0009CC0C09179020E94D1006B017C01809167
:10050000510281116CC082E08093510281E080939E
:1005100050028FEF80934F0210924E02D0934D0203
:10052000A9E5B2E0EDE2F2E080E0D8138DC01092D0
:100530002C0280912C02CC0FC82BC0932C028091EE
:100540002B02813009F084C010922B020E94D1004E
:100550006B017C0180912C028093BB00809153023F
:1005600090915402A0915502B0915602892B8A2B8A
:100570008B2BA1F00E94D1000091530210915402E4
:1005800020915502309156026C197D098E099F0900
:10059000061717072807390708F442C08091BC00E6
:1005A00083FDD8CF85EC8093BC000E94D1006B0105
:1005B0007C0180915102823009F44CC080914F023D
:1005C0008F3F09F469C080914F02803209F466C000
:1005D00080914F02803309F463C084E026C080918B
:1005E000530290915402A0915502B0915602892B6A
:1005F0008A2B8B2B09F483CF0E94D10000915302E8
:100600001091540220915502309156026C197D09C7
:100610008E099F09061717072807390708F06FCFBB
:10062000809152020E944A0285E010925802109274
:100630007A0210925702DF91CF911F910F91FF9094
:10064000EF90DF90CF9008959D9191938F5F6DCF44
:1006500085EEA9CF8091530290915402A09155024A
:10066000B0915602892B8A2B8B2B09F4A2CF0E94C2
:10067000D100009153021091540220915502309103
:1006800056026C197D098E099F090617170728075E
:10069000390708F08ECFC4CF80E0C7CF82E0C5CF46
:1006A00083E0C3CF0895E0911D0280911C02E817FA
:1006B00030F4F0E0EC54FE4F808190E008958FEF2D
:1006C0009FEF089590911D0280911C022FEF3FEF44
:1006D000981748F4E92FF0E0EC54FE4F208130E009
:1006E0009F5F90931D02C901089580911C02909113
:1006F0001D02891B990B0895CF92DF92EF92FF9212
:100700000F931F93CF93DF937C01CB018A0120913C
:100710005702222389F0EB016B01C40ED51ECC15C4
:10072000DD0569F06991D701ED91FC910190F081AF
:10073000E02DC7010995F3CF642F0E940502C8017F
:10074000DF91CF911F910F91FF90EF90DF90CF90AD
:100750000895CF93DF931F92CDB7DEB769832091C1
:1007600057022223F9F020917A02203258F021E03A
:1007700030E0FC013383228390E080E00F90DF9132
:10078000CF91089580915802E82FF0E0E75AFD4F8D
:10079000998190838F5F8093580280937A0281E0E1
:1007A00090E0ECCF61E0CE0101960E940502F7CF08
:1007B00090E080E00895EF92FF921F93CF93DF9334
:1007C000EC01142F70E08E817E01E60EF71E882367
:1007D00029F0D70111968C91841739F18A859B8570
:1007E000288131E030935702209379021092580209
:1007F00010927A02660F771FDC01ED91FC91019057
:10080000F081E02D09958A859B85DC01ED91FC91B5
:100810000190F081E02D612F09950E946B028E817D
:10082000811101C013E6F7011183DF91CF911F9170
:10083000FF90EF900895FC01A285B385808191E03F
:1008400090935702809379021092580210927A0284
:10085000ED91FC9111970190F081E02DCD0109956A
:100860000C946B020F931F93CF93DF93EC018B01DA
:1008700080E024E030E090E1E82FF0E04F81B90122
:10088000641B7109E617F70744F4E00FF11F40817C
:10089000411103C090838F5FEFCFD801EC91F0E05E
:1008A000EC5FFE4F408160E0CE010E94DB03D80187
:1008B0001196EC91F0E0EC5FFE4F408161E0CE01DB
:1008C0000E94DB03D8011296EC91F0E0EC5FFE4F42
:1008D000408163E0CE010E94DB03D8011396EC91C6
:1008E000F0E0EC5FFE4F408164E0CE01DF91CF91FC
:1008F0001F910F910C94DB03CF93DF93EC0161E226
:100900000E941B0461E8CE01DF91CF910C941B047F
:10091000FF920F931F93CF93DF9300D000D0CDB7FA
:10092000DEB78C01FC018081FF24F394F092570222
:10093000809379021092580210927A020E946B0200
:1009400081113CC0C8010E947C04809100019091FB
:100950000101A0910201B091030189839A83AB83C5
:10096000BC83BE016F5F7F4FC8010E94320440E02C
:1009700062E0C8010E94DB03F801F78283E681830D
:1009800082838383848385838085883031F088E007
:10099000808768EEC8010E941B04F801118661E897
:1009A000C8010E941B0481E00F900F900F900F90E0
:1009B000DF91CF911F910F91FF90089580E0F4CFC8
:1009C000FC0101900020E9F73197AF01481B590B5A
:1009D000BC018BE792E00C94F80085ED8093BC009D
:1009E0008091530290915402A0915502B091560209
:1009F0000796A11DB11D23E0B695A79597958795FC
:100A00002A95D1F72091BC0024FD03C01092510219
:100A10000895409153025091540260915502709193
:100A20005602452B462B472B69F30097A105B105CC
:100A300041F02AE22A95F1F700C00197A109B10916
:100A4000E1CF809152020C944A021F920F920FB68E
:100A50000F9211242F933F938F939F93AF93BF9344
:100A60008091230290912402A0912502B091260248
:100A70003091220223E0230F2D3758F50196A11D56
:100A8000B11D209322028093230290932402A0930D
:100A90002502B09326028091270290912802A0910E
:100AA0002902B0912A020196A11DB11D809327024F
:100AB00090932802A0932902B0932A02BF91AF918C
:100AC0009F918F913F912F910F900FBE0F901F908C
:100AD000189526E8230F0296A11DB11DD2CF1F92B3
:100AE0000F920FB60F9211242F933F934F935F9362
:100AF0006F937F938F939F93AF93BF93EF93FF93E6
:100B00008BE792E00E947601FF91EF91BF91AF9148
:100B10009F918F917F916F915F914F913F912F9115
:100B20000F900FBE0F901F9018951F920F920FB647
:100B30000F9211242F938F939F93EF93FF93E09144
:100B40008B02F0918C028081E0919102F0919202EF
:100B500082FD1BC09081809194028F5F8F732091E2
:100B60009502821741F0E0919402F0E0E558FD4FC4
:100B7000958F80939402FF91EF919F918F912F9188
:100B80000F900FBE0F901F9018958081F4CF1F9289
:100B90000F920FB60F9211242F933F934F935F93B1
:100BA0006F937F938F939F93AF93BF93EF93FF9335
:100BB0008091B900887F803609F44AC0F0F5883208
:100BC00009F4A7C018F5803109F49BC0B8F4882354
:100BD00009F4F9C0883009F494C0FF91EF91BF91F6
:100BE000AF919F918F917F916F915F914F913F91C5
:100BF0002F910F900FBE0F901F901895883109F418
:100C000088C0803251F780934F0214C0803409F4B9
:100C10009DC040F48033B9F38833F9F680934F02D6
:100C200085ECB0C0803509F485C0883509F496C0DC
:100C3000883499F60E94ED04D0CF883909F48CC02D
:100C400038F5883729F050F4883611F0803729F6C6
:100C500083E0809351021092170257C0883809F43C
:100C60007BC0803919F0803809F0B7CF8091170226
:100C7000803208F071C0E091170281E08E0F8093FE
:100C800017028091BB00F0E0E950FE4F80833DC029
:100C9000803B39F0E0F4803A09F479C0883A09F0F1
:100CA0009CCF84E0809351021092F6011092F501DE
:100CB000E0911A02F0911B0209958091F5018111D2
:100CC0000FC081E08093F5011092D50109C0803CEE
:100CD00009F4A6CF883C09F4A3CF883B09F07DCF67
:100CE000E091F60181E08E0F8093F601F0E0EB5287
:100CF000FE4F80818093BB009091F6018091F501B9
:100D000029C080912C028093BB0085EC8093BC00AD
:100D100064CF90914E0280914D02981758F5E09162
:100D20004E0281E08E0F80934E02F0E0E35DFD4FB6
:100D30008081E9CFE0914E0281E08E0F80934E02D8
:100D40008091BB00F0E0E35DFD4F808390914E0207
:100D500080914D029817C8F285E8D8CFE0914E02F5
:100D600081E08E0F80934E028091BB00F0E0E35D46
:100D7000FD4F80838091500281115CCF81E0809390
:100D80002B0284EA8093BC001092510226CF85EC9E
:100D90008093BC001092510280911702803230F48F
:100DA000E0911702F0E0E950FE4F108260911702C7
:100DB00070E0E0911802F091190287EF91E0099537
:100DC000109217020ACF10924F0234CFEBE7F2E0F5
:100DD0001382128288EE93E0A0E0B0E084839583D2
:100DE000A683B7832CE131E03183208325EC30E00A
:100DF0003587248724EC30E03787268720EC30E0E5
:100E0000318B208B21EC30E0338B228B22EC30E0D5
:100E1000358B248B26EC30E0378B268B118E128E8F
:100E2000138E148EE4E2F3E013821282848395839E
:100E3000A683B7838EE291E091838083A0E3B3E041
:100E400081E016968C93169717961C92179790E749
:100E50009C931B96FC93EE931A97A8E1B3E0169629
:100E60008C93169717961C92179781E78C931B9675
:100E7000FC93EE931A970895CF93DF93CDB7DEB727
:100E800029970FB6F894DEBF0FBECDBF789484B516
:100E9000826084BD84B5816084BD85B5826085BD76
:100EA00085B5816085BD80916E00816080936E0004
:100EB00010928100809181008260809381008091F6
:100EC00081008160809381008091800081608093A7
:100ED00080008091B10084608093B1008091B00067
:100EE00081608093B00080917A00846080937A0062
:100EF00080917A00826080937A0080917A0081608C
:100F000080937A0080917A00806880937A001092B2
:100F1000C100E0918B02F0918C0282E08083E0912D
:100F20008702F09188021082E0918902F0918A0292
:100F300080E1808310929302E0918F02F091900201
:100F400086E08083E0918D02F0918E028081806145
:100F50008083E0918D02F0918E0280818860808391
:100F6000E0918D02F0918E02808180688083E09113
:100F70008D02F0918E0280818F7D80838CE391E0E1
:100F80000E94E0048AE991E00E94E0048DE991E08A
:100F90000E94E00408E610E0F8016491662341F045
:100FA0008BE792E00E9498010F5F1F4F892BA1F7FA
:100FB0008AE991E00E94E00410921D0210921C0246
:100FC0001092580210927A020E942C0286EF90E052
:100FD00090931B0280931A0287EF90E0909319027E
:100FE0008093180288E48093B80080E393E00E9425
:100FF000880488E193E00E94880480E393E00E94E3
:101000007C0414E01093370388E193E00E947C0491
:1010100010931F0388EEC82E83E0D82EE12CF12C0C
:101020009AE0892E912CA12CB12C24E6422E512C31
:10103000612C712C0AE030E0232E30E0332E2FB7E4
:10104000F89460912302709124028091250290917E
:1010500026022FBF20911E0230911F0240912002D4
:1010600050912102261737074807590709F459C03C
:1010700060931E0270931F028093200290932102BE
:10108000A70196010E94A9082E833F8348875987AC
:10109000A50194010E94A908122F2D836E817F81E2
:1010A00088859985A30192010E94A908262F862F81
:1010B000602F0E949D088983F6EF8F9F200D1124D9
:1010C0002A83811102C080E189838D81602F0E9473
:1010D0009D088B8396EF899F100D11241C83BE0100
:1010E0006F5F7F4F80E393E00E94320442E062E052
:1010F00080E393E00E94DB0342E062E080E393E060
:101100000E94DB0382E08093370319821A821B82DC
:10111000E7E0EC83BE016F5F7F4F80E393E00E94C6
:1011200032042114310409F48ACF0E946201882319
:1011300009F485CF0E94000082CF991B79E004C09A
:10114000991F961708F0961B881F7A95C9F7809506
:101150000895A1E21A2EAA1BBB1BFD010DC0AA1FF8
:10116000BB1FEE1FFF1FA217B307E407F50720F010
:10117000A21BB30BE40BF50B661F771F881F991F8B
:101180001A9469F760957095809590959B01AC01D4
:10119000BD01CF010895EE0FFF1F0590F491E02DE2
:0611A0000994F894FFCF52
:1011A600101010103F065B4F666D7D077F6F777CD2
:1011B600395E797100406163000000009801F80013
:1011C6002501E50156013401480100000000A9038C
:1011D6007C03D8035203750362035303433A5C55F9
:1011E600736572735C41646D696E69737472617460
:1011F6006F725C446F776E6C6F6164735C485431D8
:10120600364B33332D302E342E315C6578616D705C
:101216006C65735C64656D6F5F646973706C61792E
:1012260054696D655C64656D6F5F646973706C614C
:101236007954696D652E696E6F000D0A0048543148
:10124600364B33335F4C49425F56455253494F4EF6
:041256003A2000003A
:00000001FF
